:020000040000FA
:060000000212A50207B484
:03001B00020D993A
:03002B000212645A
:03003300020E6951
:030043000210E7C1
:03004B00020F5F42
:030053000207079A
:03005B00020F6E23
:03006300020F7A0F
:03006B00020E4F33
:100083000207500101FF01010503010F10FEFF03E9
:100093000003000300030003000300030003000345
:1000A3000005000A00140028004F009E0000009A7B
:1000B3001B9A1B9A1B9A1B5C1A561A9A1BC327007E
:1000C3000000002528000000000C0000000C0001C7
:1000D300CA04FF0BFE10AA8800FFFF01020097115C
:1000E3000000000A12640002020008000005020773
:1000F3001E02051E020A03B80B02803E01033200F2
:1001030002F1FF6D6C6A7462003132333435363775
:100113003800FF020206303132333435363738398E
:1001230041424344454600286E756C6C20706F69EC
:100133006E74657229003F3F3F000000807F00001E
:10014300803FF9021550B743BA510000204100E740
:10015300DB2E0000A04010000000080000000A0091
:1001630000001212D360461212F1603DE968700874
:10017300F618F618F618F622748067F71201990933
:100183000909748067F7221212F1601D1212D370ED
:1001930005191919801A121154701F12112AC370EC
:1001A30003E66733191919400718181822080808B5
:1001B30074FFF618F618F618F62212112A601712B1
:1001C3001330702192F012133A7019501720F01463
:1001D300080808090909E7F61819E7F61819E7F6F0
:1001E3001819E7F62212133A60E6E869701F080847
:1001F300E62480F608E436F618547FB47F0CE65400
:10020300806007F6E418F618F622181822E9C6CC1F
:1002130008C6CD08C6CE08C6CFC0E0E8C0E0EAC035
:10022300E0EBC0E009E9F809E7FA09E7FBE6F918AA
:10023300E6F8C3EC98ED99EE9AEBC2E7F5F0EFC25E
:10024300E795F0500E600CEBCFFBEACEFAE9CDF95F
:10025300E8CCF8EAA2E7D2E7FAEB33FB13F5F0EECA
:10026300A2E7D2E7FEEF33FFC5F013A2E730E601C2
:10027300B313C5F0C3C0E0C0F07F00C39BFB605B5A
:100283009418600C401AD0E023F9D0E0F802036818
:100293008AF0E9486003D2F0E4AFF0FAF9F8803B62
:1002A300EB30E40D89F0EA6003D2F0E4AFF0F9CA71
:1002B300F8EB30E30D88F0EF6002D2F0AFF0E4CA60
:1002C300C9F8EB54076014FBC3EA13FAE913F9E81E
:1002D30013F8EF135002D2E0FFDBEDD0E0C0E030C3
:1002E300E739C3E49FFFF5F0EC98FC42F0ED99FD8C
:1002F30042F0EE9AFE42F0D0E0F9D0E0F8E5F0608B
:100303007AE923F9EE20E742D8028067C3EF33FF8F
:10031300EC33FCED33FDEE33FE80EAEC28FCED39E3
:10032300FDEE3AFED0E023F9D0E0F84002801BC393
:10033300EE13FEED13FDEC13FCEF135002D2E0FFBE
:1003430008B800067F7F74FF802EEF3350178CF0C0
:1003530020F00260100CBC000C0DBD00080EBE00A6
:100363000408E860DFE933E813FFEE2313FE4F4D83
:100373004C8008E95480FFE4FEFDFCEE33EF33F4D8
:100383007004FCFD7E80D0E0FBD0E0FAD0E0F8D032
:10039300E0CFC618CEC618CDC618CCC6F9221212A5
:1003A300F17004181818221212D3700D74FFF61886
:1003B30019F61819F61819F622E7548066F612137F
:1003C3003A700F12133070F014F608F608F608F6B8
:1003D30080D1121330700CF608F608768008E644D4
:1003E3007F80EC12112D700C12115760BFE6548000
:1003F300F6E480BB121157700519191980A5E86935
:10040300700C763F18768018F618F6E8F922E6CDD8
:10041300C0E018ECC0E0E633CD33CDD313F6E719D3
:10042300FCE7191933CC33C3947F400ECD9D502480
:1004330008E65480F6E418F6800FF4043D145014D3
:1004430008E6447FF6187680E418F618F6D0E0FC48
:10045300D0E0FD22CCD313CCFD18E4C6CBC0E0180A
:10046300E4C6CAC0E00808ED08C633E613F618E48C
:1004730033C675F003C3CA97CA09CB97CB199C40FF
:10048300047D08802EBD000302054A16B6FF05064B
:1004930006081618C3CA33CACB33CB33CA27CA09D3
:1004A300CB37CB193CC37D08803E187D0820E75C21
:1004B300C633C6CA33CACB33CB33DDF1D5F0EB3009
:1004C300E77BCA97CA09CB974ACB199C406F4B70FD
:1004D30025E620E0218066187D08C3CA97CA09CBA8
:1004E30097CB199CD3C633C6CA33CACB33CB33504D
:1004F300C9DDE7D5F0E1D3E4C636C608C636C6087B
:10050300C636C608C636C61818188031C3CA97CA75
:1005130009CB97CB199CB34097C633C6CA33CACB12
:1005230033CB33DD34D5F02EC6A2E0C640C8CA278C
:10053300CA09CB37194A70BECB3CB480B90808E668
:100543003308E633601F181818D0E0FAD0E0FBD068
:10055300E0FCD0E0FD22187D08CA27CA09CB37CBBF
:10056300193CD3808013F618E4B67F11F618B6FF52
:100573000EF618C60470D20808768080CAF618F6FC
:1005830018F680C5001212F1604F1212D36012E701
:10059300548066F61211547011121330703B09091E
:1005A30009F4F618F618F618F62212112A70151225
:1005B300133A08080860EAE6447FF618768018E4E0
:1005C300F618F62212133A60161213307012E4F67C
:1005D30008F608F608E65480F609090918181822DF
:1005E300EAC0E0EBC0E0ECC0E0EDC0E0E687F0A4D9
:1005F300FBACF008E687F0A42CFCE435F0FA18090C
:10060300E687F0A42C4B60027401CA35F0FCE43396
:10061300FB09E687F0D2F7A42CCB35F0FC1908E6EA
:1006230087F0A42BCC35F0FBE433FD0819E687F003
:10063300D2E7A42C4ACB35F0CD3400FC09E687F091
:10064300D2E7A42DCC35F0FDE433FA0918E687F0A0
:10065300D2F7A42CCD35F0CA3400FC08E687F0D2DB
:10066300E7D2F7A42ACC35F07A7E20E70B0ACB3306
:10067300CBCD33CDCC33CC33CB3350147004ED30EE
:10068300E00ED2F1E4CD3DCDCC3CCC3B5005DA05B8
:10069300C2F1EB547FC63308E63392F0FBE733092C
:1006A300E733C39A502D2B70190C0D4C4D70151850
:1006B30006E608C333700D20F10AA2F013F6E4181E
:1006C300800B4024E4F630F002768018F618F61812
:1006D300F68024D33B14501074FFA2F013F618765F
:1006E30080E418F618F6800FA2F013F618E6330329
:1006F300F618ECF618EDF6D0E0FDD0E0FCD0E0FB08
:10070300D0E0FA22C0E074F2120ACDE5A7F8E5A121
:10071300F958541060081222AE53A1EF802AE8A2C0
:10072300E0C0D0E9A2E092F01211DF158182F0500F
:1007330017906198E0F890174CE0C398A2D265D067
:10074300335002E8F053A1FE7F01020B2CC0E0748A
:10075300F2120ACD9061A4E0F8759B00E59158541C
:100763000860087591F71222F0802AE59158541019
:1007730060087591EF1222F6801BE8A2E0C0D0E575
:1007830091A2E092F01211DF158182F05007E0C2CE
:10079300E0F01224169061A3E0F8E5E958540460F0
:1007A3000E1223EC75E9FB906193E0A2E640F28020
:1007B30097C0E074F2120ACD9061A5E0F8E5BF5846
:1007C3005404600653BFFB12242E02074BC3E49864
:1007D300F8E499F91208118026C3E49AFAE49BFB22
:1007E300E920E7E9120811E498F8E499F922C3E44F
:1007F30098F8E499F9120811E498F8E499F9C3E434
:100803009AFAE49BFB22EB20E7CFE920E7E0B9006B
:1008130010BB0008E88AF084F8AAF022E4FBC8FAC7
:1008230022EB70227B10C833C8C933C9335007C3C6
:100833009AC3DBF280069A50012ADBEAC833F4C874
:10084300C933F4C9FA2275F008E4C833C8C933C9F7
:1008530033C99AC99B5004C92AC93BD5F0ECFBC8DC
:1008630033F4C8E4C9FA221208AA20F01430E72BA3
:1008730074FFFCFBFA747F8022E4FCFBFA74808033
:100883001AB48008BC00F2BB00EF800F50EBF9E410
:10089300C39AFAE49BFBE49CFCE499C6CC18C6CB50
:1008A30018C6CA18C6F922E4C9C608CAC608CBC600
:1008B300D3330308CCC63392F0C3947F402E9418ED
:1008C3004019C9B90704CACBCC225025C309CA337E
:1008D300CACB33CBCC33CC33D9F422F4600DC9CC9F
:1008E300C313CB13CBCA13CAD9F6CC22E4FCFBFA4D
:1008F3002214FCFBFA22080808EAC0E0EBC0E086F9
:10090300F0E7A4FA180986F0E7A42AFA180986F092
:10091300E7A42AFA180986F0E7A42AFA1986F0E769
:10092300A4FBE5F02AFA190886F0E7A42BFBE5F00F
:100933003AFA190886F0E7A42BFBE5F03AFA1818FF
:100943000986F0E7A4C5F02BFBE43AFA1908E7C5DA
:10095300F0C6A426F6E5F03BFBE43AFA1886F0E786
:10096300A4F6E5F00826F6E43B08F6E43A08F6D0E8
:10097300E0FBD0E0FA22080808E630E711121192F2
:10098300120991080808C64480C6181818221818B6
:1009930018E9799EC608CAC608CBC608CCC6C37078
:1009A300207996CACBCC7019798ECBCC701379860B
:1009B300CC700EF9802ACA33CACB33CBCC33CC33B9
:1009C3001930E7F2CCCBCA3350147004EA30E00D8F
:1009D300E4CA3ACACB3BCBCC3CCC500209C3E913A3
:1009E300C6CC182313C6CB18C6CA18C6F922E4CF3F
:1009F300C0E0E4CEC0E0E4CDC0E0E4CCC0E075F0FC
:100A030020C3E633F608E633F608E633F608E633A2
:100A1300F6181818EC33FCED33FDEE33FEEF33FF1D
:100A2300C3EC9709ED9709EE9709EF971919194048
:100A33000FFFEC97FC09ED97FD09EE97FE191906D8
:100A4300D5F0BEECF709EDF709EEF709EFF7191941
:100A530019D0E0FCD0E0FDD0E0FED0E0FF2225106D
:100A6300C582C0E0E51134FFC583C0E0E510C3953E
:100A73008224F810AF08858311858210800885834E
:100A830011858210D2AFCEF0A3E520F0A37808E65B
:100A930008F0A3DEFAEFF0A3E58124FAF8E608F004
:100AA300A3E608F0A3E608F0A30808E608F0A3E627
:100AB30008F0A315811581D0E0FED0E0F81581156B
:100AC300811581E8C0E0EEC0E022C0D02510C582C8
:100AD300C0E0E51134FFC583C0E0E510C39582246F
:100AE300F310AF08858311858210800885831185F3
:100AF3008210D2AFC8F0A3E9F0A3EAF0A3EBF0A30E
:100B03007908E709F0A3D8FAECF0A3EDF0A3EEF02F
:100B1300A3EFF0A3D0E0F0A3D0E0F0A3D0E0F0A3E4
:100B2300E520F0A3E5F0F0A322851183851082E090
:100B3300C0E0A3E0F9A3E0FAA3E0FBA37808E0F6A2
:100B430008A3DFFAE0FCA3E0FDA3E0FEA3E0FFA31C
:100B5300E0C0E0A3E0C0E0A3E0F5D0A3E0F520A36C
:100B6300E0A3F5F010AF0885831185821080088516
:100B73008311858210D2AFD082D083D0E0F8D0E049
:100B830032121325B90003020BC6E49002FF78FD6D
:100B930079198002F0A3D8FCD9FA901BFBAA82AB87
:100BA3008390008678E079018015E493A3AC82AD4D
:100BB300838A828B83F0A3AA82AB838C828D83D8B2
:100BC300E9D9E77582E27583E77403120CC3758272
:100BD300347583277400120CC31212F1601C1212B5
:100BE300D3601712133A70071213307001D322C067
:100BF300D01213307006D0D0B322C32233D0D050DA
:100C03001430E0F6C3E7960809E7960809E7960863
:100C130009E796B32220E0D5E6970809E697080985
:100C2300E6970809E697B322D083D082ECC0E0EDC3
:100C3300C0E0E493A3FCE493A3FDED4C600D120D1F
:100C4300DAEC24FFFCED34FFFD80EFE493A3FCE436
:100C530093A3FDED4C600D120F0AEC24FFFCED3461
:100C6300FFFD80EFD0E0FDD0E0FCE493A3C0E0E41F
:100C730093C0E0221212F1601B1212D360161213FA
:100C83003A7007121330600CB322C0D012133070C5
:100C930005D0D022C32233D0D0501330E0EBC3E7CA
:100CA300960809E7960809E7960809E7962220E0DF
:100CB300E4E6970809E6970809E6970809E6972204
:100CC300C0F0F5F0E59F5407C0E0E59F54F845F008
:100CD300D0F0F59FE473859FF053F0F8D0E045F032
:100CE300F59F22D083D082E59F5407C0E0E493C0F0
:100CF300E0740193C0E07402935407C0F0F5F0E58B
:100D03009F54F845F0D0F0F59F22D083D082E9C0FC
:100D1300E0E493A3C386F0C5F095F0F908E493A348
:100D230086F0C5F095F0700BE493A3C3994005E9F1
:100D3300048002A3E475F002A42582F582E5F03570
:100D430083F583D0E0F9E493A3C0E0E493C0E02209
:100D5300851183851082E0A3FEE0A3F5207808E0E7
:100D6300A3F608DFFAE0A3FFE0A3C0E0E0A3C0E03E
:100D7300E0A3C0E0E0A3C0E0E0A3C0E010AF0885BB
:100D830082108583118008858210858311D2AFD0AC
:100D930083D082020CD9C0E074F2120ACDE5F9FCCB
:100DA300901310E02401F8E43400F97A807B0012F8
:100DB3000809C28F901311E06A6017901310E0F8CE
:100DC300749028F58274123400F583ECF0EA9013E2
:100DD30010F07F01020B2CC0E0C3E493960874016A
:100DE300939618400FE4936670080874019366188D
:100DF30070007019A3A3C3E4939608740193961823
:100E0300A3A3400DD0E0D0E0D0E0020C67A3A3A3DE
:100E1300A3A3A3D0E022D083D082C5F0E493A3C5DB
:100E2300F0C395F0F5F0E493A3C395F04005E5F026
:100E3300048001E475F002A42582F582E5F0358390
:100E4300F583E493A3C0E0E493C0E022C0E074F22E
:100E5300120ACDE589A2E15003122170758900C2FF
:100E6300C57F01020B2CC0E074F2120ACDE58BA200
:100E7300E05003122170758B00C2E880E474048093
:100E83000474028000CCC0E0EDC0E0E510C39CCC4C
:100E9300AD1150011D10AF068C108D1180068C1002
:100EA3008D11D2AF120FCED0E0FDD0E0FC22740240
:100EB3008000CCC0E0EDC0E0E510C39CCCAD115088
:100EC300011D10AF068C108D1180068C108D11D270
:100ED300AF120FACD0E0FDD0E0FC221212F160257E
:100EE3001212D3602012133A700302133008080859
:100EF300E76670101819E766700A1819E766700438
:100F03001819E76622F422C0E0C0F088F0E4936683
:100F130070080874019366187000A8F0A3A3700BFF
:100F2300D0F0D0E0D0E0D0E0020C67A3A3D0F0D0A3
:100F3300E022D083D082CCC0E0E493A36006120FFA
:100F4300EF1470FAE493A360061210FE1470FAD043
:100F5300E0FCE493A3C0E0E493C0E022C0E074F2B9
:100F6300120ACD1221F47F01020B2CC0E074F2129D
:100F73000ACD1221FA80EFC0E074F2120ACD1222D8
:100F83000080E3C008C3E096F50808A3E096420892
:100F930008A3E096420808A3E0964208A2D265D0CF
:100FA30033E5087001D3D00822CAC0E0E493A3C597
:100FB30082CCC582C583CDC583F0A3C582CCC5824F
:100FC300C583CDC583DAE5D0E0CA22CAC0E0E0A379
:100FD300C582CCC582C583CDC583F0A3C582CCC5EC
:100FE30082C583CDC583DAE6D0E0CA22C0E0E493AC
:100FF300A3D39C5010E493A3C39C400AD0E0D0E059
:10100300D0E0020F52A3A3A3D0E02270090808087E
:10101300226016181818C6C333C608C633C608C6D6
:1010230033C608C633C6D5E0EA22C008C3E096F546
:101033000808A3E096420808A3E096420808A3E044
:101043009645087001D3D008222510F58210AF0809
:10105300F510400215118008F51040021511D2AFAA
:10106300851183227404800A74038006740280024B
:101073007401C0E0F40412104CD0E012130022C03B
:10108300D0251010AF08F510500205118008F51097
:1010930050020511D2AFD0D022BB0102E722C08299
:1010A300C08389828A83BB0003E08002E493D083F8
:1010B300D082226016080808C6C313C618C613C612
:1010C30018C613C618C613C6D5E0EA22C3E0C696EF
:1010D300F608A3E0C696F608A3E0C696F608A3E0D2
:1010E300C696F622C0E074F2120ACDC2C0E5D1A2C0
:1010F300E4500312222A7F01020B2CC0E0E493A3E5
:101103006C7009D0E0D0E0D0E0020F52A3A3D0E08E
:1011130022251010AF08F510400215118008F510B4
:1011230040021511D2AF22191919E7094709700AAC
:10113300E709C3337005E733F4220922C3E09608B5
:10114300A3E09608A3E09608A3E096A2D265D03365
:1011530022181818E6084608700AE608C333700513
:10116300E633F4220822E066701008A3E066700AF2
:1011730008A3E066700408A3E06622C3E096F008C3
:10118300A3E096F008A3E096F008A3E096F02218F7
:101193001818E4C396F608E496F608E496F608E40D
:1011A30096F622E026F608A3E036F608A3E036F624
:1011B30008A3E036F622E026F008A3E036F008A301
:1011C300E036F008A3E036F022E627F60809E63712
:1011D300F60809E637F60809E637F622C0E0E8C064
:1011E300E0E58124FCF8E6A2E7D0E0F8D0E022E6CF
:1011F30057F60809E657F60809E657F60809E657C9
:10120300F622E056F608A3E056F608A3E056F608E1
:10121300A3E056F622E056F008A3E056F008A3E058
:1012230056F008A3E056F022E046F008A3E046F0AB
:1012330008A3E046F008A3E046F022700422600D04
:1012430018C6C333C608C633C6D5E0F41822E6472A
:10125300F60809E647F60809E647F60809E647F6F9
:1012630022C0E074F2120ACDC2C71223327F0102F8
:101273000B2CC6F4C608C6F4C608C6F4C608C6F4E2
:10128300C622C3E7960809E7960809E7960809E71F
:101293009622C3E09608A3E09608A3E09608A3E08D
:1012A300962275D0007581407510FF7511020002FA
:1012B3000B84600C08C6C313C618C613C6D5E0F466
:1012C30022E6F008A3E6F008A3E6F008A3E6F0227E
:1012D300E7094709C3134709336002E733F422E000
:1012E300F608A3E0F608A3E0F608A3E0F622E60872
:1012F3004608C3134608336002E633F422CAC0E04B
:10130300E6F0A308DAFAD0E0FA22E0FAA3E0FBA3BE
:10131300E0FCA3E0FD22EAF0A3EBF0A3ECF0A3EDE5
:10132300F022E5C754F84401F5C7790122E7C33336
:1013330019471947194722E6C33318461846184672
:10134300222510F582E43511F58322120CE6AB2D2C
:1013530000120CE6F72D00120CE6362E00120CE6F6
:10136300532E00120CE6822E00120CE6D82E001229
:101373000CE6F32E00120CE61A2F00120CE6552F82
:1013830000120CE6952F00120CE6B62F00120CE6A5
:10139300063000120CE6C03000120CE64531001294
:1013A3000CE6CF3100120CE6B03200120CE6DD324F
:1013B30000120CE62C3300120CE6543300120CE638
:1013C3007D3400120CE6F53400120CE61B350012D6
:1013D3000CE6413500120CE6653500120CE6773554
:1013E30000120CE6813500120CE62B3600120CE6D7
:1013F300973600120CE65E3700120CE666370012D1
:101403000CE6F13700120CE6253800120CE63538ED
:1014130000120CE6FA3800120CE6A83900120CE6AA
:10142300073A00120CE6143B00120CE68D3B001247
:101433000CE6E13B00120CE6563C00120CE6F43DD0
:1014430000120CE6083E00120CE66A3E00120CE69F
:10145300EF3E00120CE63C3F00120CE65A4000122D
:101463000CE64C4100120CE6B94100120CE6354281
:1014730000120CE6AB4200120CE6E34200120CE64B
:10148300C04300120CE6E34400120CE64045001290
:101493000CE6894500120CE6B14500120CE63A460B
:1014A30000120CE6D04600120CE6364700120CE69A
:1014B3005B4700120CE6D44700120CE668480012A2
:1014C3000CE6FB4800120CE61F4900120CE6434AE7
:1014D30000120CE6564A00120CE6C74A00120CE64C
:1014E300DC4A00120CE63D4B00120CE6874B00125F
:1014F3000CE6C24B00120CE6E34C00120CE6AA4EBB
:1015030000120CE6B44E00120CE6BE4E00120CE6BE
:10151300C84E00120CE6D24E00120CE6EC4E00123E
:101523000CE6F64E00120CE6004F00120CE60A4FD2
:1015330000120CE62B4F00120CE6794F00120CE65A
:10154300834F00120CE6A74F00120CE6CB4F00129C
:101553000CE6245000120CE6695000120CE687508A
:1015630000120CE6FE5000120CE6485100120CE685
:101573007E5100120CE6FD5100120CE68652001259
:101583000CE6635400120CE62B5500120CE6515581
:1015930000120CE6395600120CE6115900120CE643
:1015A3009E5A00120CE6665C00120CE6AC5C00125C
:1015B3000CE6D65D00120CE6275E00120CE6925E86
:1015C30000120CE69C5E00120CE6626000120CE650
:1015D300166100120CE6686100120CE62462001228
:1015E3000CE6E96200120CE6746400120CE69764E0
:1015F30000120CE6EB6400120CE6D96500120CE64F
:101603000B6600120CE65F6600120CE664670012BC
:101613000CE6AB6700120CE6F16700120CE65068AB
:1016230000120CE69D6900120CE6E96900120CE653
:10163300F36A00120CE69A6D00120CE6BE6D0012FE
:101643000CE6896F00120CE6E06F00120CE6DC700A
:1016530000120CE6657100120CE6BF7100120CE675
:101663001F7200120CE6AE7200120CE62473001215
:101673000CE68F7300120CE6288A01120CE67A8AB4
:1016830001120CE66A8C01120CE6198D01120CE6AC
:101693004D8D01120CE6778E01120CE62E9101128C
:1016A3000CE63C9201120CE6159B01120CE6CF9D51
:1016B30001120CE6BB9E01120CE6819F01120CE69F
:1016C300D3A001120CE6D8A101120CE6EBA401127F
:1016D3000CE6FDA601120CE65DA701120CE635A887
:1016E30001120CE660A801120CE6FEA801120CE63A
:1016F300DCA901120CE6BDAA01120CE68DAB0112A6
:101703000CE6BAAB01120CE6DCAB01120CE61EAE22
:1017130001120CE6D8AE01120CE62FAF01120CE653
:1017230092AF01120CE648B001120CE67DB0011233
:101733000CE6D1B001120CE601B101120CE63FB187
:1017430001120CE68DB101120CE692B101120CE606
:10175300E9B101120CE611B201120CE60CB301124D
:101763000CE694B301120CE615B601120CE6D2B6E0
:1017730001120CE667B801120CE6DCBA01120CE6A2
:1017830084BB01120CE6FCBB01120CE625BE011260
:101793000CE6CABE01120CE611BF01120CE6DDC055
:1017A30001120CE6F1C001120CE6FEC001120CE6B8
:1017B30028C101120CE634C101120CE652C1011218
:1017C3000CE634C301120CE693C301120CE6E7C323
:1017D30001120CE6F2C401120CE64EC501120CE62E
:1017E30005C601120CE64DC601120CE6E7C601124E
:1017F3000CE6CBC701120CE681C801120CE6B2C994
:1018030001120CE698CA01120CE640CB01120CE659
:10181300D4CB01120CE6EBCB01120CE624CC011263
:101823000CE62ECC01120CE63ACC01120CE658CC95
:1018330001120CE69CCC01120CE60ACD01120CE657
:1018430031CD01120CE64BCD01120CE6A0CE0112F4
:101853000CE6EACE01120CE6F3CF01120CE618D027
:1018630001120CE682D001120CE6E4D001120CE660
:1018730055D101120CE667D201120CE612D3011204
:101883000CE6FAD301120CE658D401120CE6E2D4AA
:1018930001120CE6D3D501120CE602D601120CE6B6
:1018A30069D601120CE643D701120CE669D701127F
:1018B3000CE6D2D701120CE6F7D701120CE61DD8BD
:1018C30001120CE653D801120CE66FDA01120CE692
:1018D3005FDB01120CE625DC01120CE6BFDD011211
:1018E3000CE608DE01120CE634DE01120CE6BBDE68
:1018F30001120CE623DF01120CE675DF01120CE680
:101903009BDF01120CE6E2DF01120CE60EE001128E
:101913000CE643E001120CE693E001120CE6F1E061
:1019230001120CE6A4E101120CE666E301120CE6D7
:10193300D8E301120CE601E401120CE675E401128E
:101943000CE6EAE401120CE62CE501120CE668E56C
:1019530001120CE68DE501120CE6D3E501120CE64B
:10196300F0E501120CE68DE601120CE697FF011279
:101973000CE6E2FF01120CE6918002120CE6BF8036
:1019830002120CE67D8102120CE6638202120CE65F
:101993006A8302120CE6F58402120CE66A850212CF
:1019A3000CE6198602120CE6168702120CE68187F2
:1019B30002120CE6D48702120CE6288802120CE607
:1019C300328802120CE6788802120CE6DB880212D7
:1019D3000CE6738902120CE6E88902120CE6D48A3B
:1019E30002120CE64F8B02120CE6698B02120CE614
:1019F300988B02120CE6C58B02120CE65C8C021269
:101A03000CE66C8C02120CE6BF8C02120CE6CB8C3B
:101A130002120CE6D78C02120CE6E08C02120CE6E2
:101A23002B8D02120CE6868D02120CE6D78D021264
:101A33000CE6F28D02120CE6288E02120CE6498E99
:101A430002120CE6538E02120CE6688F02120CE6A9
:101A5300868F02120CE6F88F02120CE60B9002122C
:101A63000CE6199002120CE6BA9002120CE68E9163
:101A730002120CE6AF9202120CE62B9302120CE652
:101A8300359302120CE6A89302120CE6BF930212DE
:101A93000CE6019402120CE63F9402120CE66E94DB
:101AA30002120CE6A59402120CE6C39402120CE691
:101AB300E79402120CE6289502120CE6179602121E
:101AC3000CE65D9602120CE6889602120CE6FB9673
:101AD30002120CE6229702120CE6679702120CE63A
:101AE300759702120CE6CE9702120CE60B980212BF
:101AF3000CE6529802120CE6839802120CE6A698A2
:101B030002120CE6B19802120CE6CF9802120CE610
:101B13008B9902120CE6959902120CE6DA990212DD
:101B23000CE61E9A02120CE6329A02120CE61D9B78
:101B330002120CE6309B02120CE6459B02120CE6E5
:101B4300ED9B02120CE6399C02120CE6EF9C02128A
:101B53000CE6FA9C02120CE6489E02120CE6749EF6
:101B630002120CE6B59E02120CE6CF9E02120CE6A0
:101B7300409F02120CE6CC9F02120CE603A0021255
:101B83000CE666A202120CE6EEA202120CE66EA3AB
:101B930002120CE6B1A502120CE6C1A502120CE674
:101BA300C4A502120CE6D0A502120CE6E4A50212AB
:101BB3000CE603A602120CE636A602120CE6FBA6FE
:101BC30002120CE662A702120CE6C6A702120CE68A
:101BD30050A802120CE601A902120CE62FA9021268
:101BE3000CE6C5A902120CE6F4A902120CE616AA29
:101BF30002120CE63DAA02120CE6A2AA02120CE69D
:101C030055AC02120CE658AC02120CE6C2AC02123E
:101C13000CE6B5AD02120CE69CAE02120CE627AF41
:101C230002120CE66AB002120CE62DB102120CE6A7
:101C330066B102120CE697B102120CE6A0B10212D1
:101C43000CE684B202120CE614B302120CE6B2B331
:101C530002120CE672B402120CE6EBB402120CE6AA
:101C630018E302120CE657B502120CE608AD031294
:101C73000CE616AD03120CE68CAD03120CE6C4ADF4
:101C830003120CE60CAE03120CE613B003120CE6BF
:101C9300F5B103120CE6B4B403120CE6E0B403127C
:101CA3000CE600B503120CE663B503120CE6A1B50E
:101CB30003120CE6CDB503120CE607B603120CE6CD
:101CC30052B603120CE65CB603120CE6A0B603127E
:101CD3000CE647B703120CE66AB703120CE60D2DA8
:101CE30000120CE6D2BA03120CE6E0BA03120CE6B9
:101CF30033BB03120CE659BB03120CE6B1BB031250
:101D03000CE621BC03120CE674BC03120CE6DDBC2A
:101D130003120CE60BBD03120CE689BD03120CE69D
:101D2300E9BD03120CE628BE03120CE63ABE031209
:101D33000CE64CBE03120CE66BBE03120CE60DBFA1
:101D430003120CE647BF03120CE6DE8304120CE613
:101D53000AFD03120CE669FD03120CE692FD031261
:101D63000CE688FE03120CE6C7E601120CE6A6E7B2
:101D730001120CE6E2E701120CE68BE901120CE614
:101D8300CDE901120CE678EB01120CE6BCEB011273
:101D93000CE684EC01120CE611ED01120CE6A2ED47
:101DA30001120CE6F8ED01120CE638EE01120CE616
:101DB300DEEF01120CE683F101120CE6D1F30112FE
:101DC3000CE6DFF301120CE647F401120CE683F78D
:101DD30001120CE6C38A04120CE6D98A04120CE63B
:101DE300658904120CE611EE03120CE624EE0312CD
:101DF3000CE6B1EE03120CE6ECEE03120CE607EF71
:101E030003120CE62CEF03120CE660EF03120CE650
:101E130091EF03120CE6B0F003120CE64AFB031237
:101E23000CE6B7FB03120CE6D3FB03120CE615FC1E
:101E330003120CE63EFC03120CE6D6FC03120CE67E
:101E4300EFFC03120CE607FD03120CE64F9003129E
:101E53000CE60A9103120CE6689303120CE69E96B5
:101E630003120CE6219703120CE6399703120CE6D2
:101E7300069903120CE6E17300120CE62C740012AF
:101E83000CE6187500120CE6CB7500120CE6E07533
:101E930000120CE62A7600120CE6797600120CE6A4
:101EA3008C7600120CE6D87600120CE6EC76001263
:101EB3000CE6267700120CE6387800120CE69B78C5
:101EC30000120CE6AA7800120CE6EB7800120CE67E
:101ED3001F7900120CE67F7900120CE69D7900123F
:101EE3000CE6177A00120CE6A37B00120CE6C57B06
:101EF30000120CE6FA7B00120CE6257C00120CE6BD
:101F0300357C00120CE6417C00120CE6447C001286
:101F13000CE6907C00120CE62F7D00120CE6547D3B
:101F230000120CE6777D00120CE6877D00120CE6AA
:101F3300FB7D00120CE6167E00120CE6387E0012C2
:101F43000CE6737E00120CE6827E00120CE6188902
:101F530004120CE6308904120CE6C4F701120CE6F5
:101F630013F801120CE6B5F901120CE661FB01123C
:101F73000CE6A9FB01120CE6E0FC01120CE66DFE77
:101F830001120CE68FFE01120CE6E1FE01120CE6D3
:101F930063FF01120CE63EE602120CE65FE6021254
:101FA3000CE6E5E602120CE639E702120CE6BAE7A4
:101FB30002120CE616E802120CE662E802120CE6C4
:101FC300D5E802120CE659E902120CE6CFE9021237
:101FD3000CE611EA02120CE63BEE02120CE604F0E8
:101FE30002120CE6FFF002120CE647F102120CE6B5
:101FF300D7F202120CE64DF502120CE6DCF50212E2
:102003000CE617F702120CE655FA02120CE665FA13
:1020130002120CE6B5FB02120CE6E1FB02120CE61F
:1020230000FD02120CE650FE02120CE602FF021241
:102033000CE6009E03120CE6B89E03120CE6419FC9
:1020430003120CE604A003120CE679A003120CE6BB
:1020530034A303120CE6E5A303120CE635A4031222
:102063000CE605A603120CE6BFA603120CE647A76F
:1020730003120CE6EAA803120CE653AA03120CE6B9
:10208300F0AA03120CE6B8AB03120CE6BA870412EB
:102093000CE6F38704120CE6F88704120CE6238897
:1020A30004120CE69BF503120CE605F603120CE68C
:1020B300BEF603120CE624F703120CE699E80312AA
:1020C3000CE6F2E803120CE681EA03120CE6C0C741
:1020D30003120CE6DEC703120CE6A8C803120CE6D3
:1020E3000DC903120CE644C903120CE676C90312A8
:1020F3000CE6D4C903120CE6F4C903120CE6FFC9BB
:1021030003120CE63A8804120CE6848804120CE6E7
:10211300008004120CE60E8004120CE6E57F001228
:102123000CE6138704120CE6238704120CE641879E
:1021330004120CE6A28704120CE6AE8104120CE62C
:10214300D58104120CE65A8204120CE6B3820412FF
:102153000CE6DD9D03120CE6CC8204120CE6EE8243
:1021630004120CE6588304120CE6638304120CE693
:10217300A78304120CE660D803120CE66ED8031290
:102183000CE6AFD803120CE6C9D803120CE61AD931
:1021930003120CE61BDA03120CE640DA03120CE618
:1021A3005DDA03120CE67ADA03120CE69FDA031205
:1021B3000CE6D8DA03120CE616DB03120CE68DDB11
:1021C30003120CE629DC03120CE6DEDC03120CE638
:1021D300ECDC03120CE666DD03120CE622DE0312CE
:1021E3000CE6ADE003120CE68D7E00120CE6C67E13
:1021F30000120CE6E37E00120CE6417F00120CE6AF
:10220300A67F00120CE639D303120CE6A6D3031201
:102213000CE660D403120CE6CDD403120CE6F3D51E
:1022230003120CE666D703120CE6CAD703120CE6B8
:1022330016D803120CE61FD803120CE62ED803128D
:102243000CE641D803120CE657D803120CE6E5CD91
:1022530003120CE638CE03120CE6ACD003120CE6E4
:10226300DED003120CE600D103120CE619D10312DF
:102273000CE632D103120CE664D203120CE6FAD256
:1022830003120CE67BF903120CE6ADF903120CE61C
:10229300B9F903120CE6ECF903120CE615FA031272
:1022A3000CE643FA03120CE6C0FA03120CE6EFFA4B
:1022B30003120CE6C7F003120CE6EDF003120CE672
:1022C3002AF103120CE63CF103120CE658F1031257
:1022D3000CE6C6F103120CE6CFF103120CE62EF264
:1022E30003120CE652F203120CE611F303120CE68E
:1022F3001EF303120CE62FF303120CE694FF0212F3
:102303000CE6E1FF02120CE67A9A03120CE6A29B9A
:1023130003120CE6AF9B03120CE6CE9B03120CE6F2
:10232300E49B03120CE6F89B03120CE6729C031267
:102333000CE6F09C03120CE6699D03120CE6B19DBA
:1023430003120CE6C19D03120CE6DA8504120CE6B7
:10235300FE8504120CE6268604120CE64E86041251
:102363000CE65DF303120CE676F303120CE682F33C
:1023730003120CE696F303120CE6B4F303120CE615
:10238300BEF303120CE6C8F303120CE6DBF30312ED
:102393000CE60FF403120CE648F403120CE679F48E
:1023A30003120CE6C7F403120CE614F503120CE651
:1023B3002FF503120CE639F503120CE64AF5031266
:1023C3000CE690F503120CE6B08904120CE66DBF1F
:1023D30003120CE699BF03120CE6B5BF03120CE619
:1023E300C8BF03120CE6DEBF03120CE64EC0031295
:1023F3000CE681C003120CE6DBC303120CE611C525
:1024030003120CE644C503120CE6A9C503120CE63D
:1024130098C603120CE6C0C603120CE6D5C6031217
:102423000CE6E5C603120CE629C703120CE67EC7C9
:1024330003120CE694C703120CE6C1FE03120CE66A
:10244300DCFE03120CE605FF03120CE61FFF03126A
:102453000CE644FF03120CE663FF03120CE67BFF5A
:1024630003120CE6A9FF03120CE6C3FF03120CE6EA
:10247300F88904120CE612E103120CE619E10312C7
:102483000CE625E203120CE655E203120CE67BE2AE
:1024930003120CE6AEE203120CE6C0E203120CE6F2
:1024A300FAE203120CE660E303120CE699E303126B
:1024B3000CE6E5E303120CE612E403120CE632E445
:1024C30003120CE695F703120CE6ADF703120CE6C4
:1024D30090F803120CE6DC8404120CE63385041234
:1024E3000CE6708504120CE6B18504120CE692E446
:1024F30003120CE6B1E403120CE6FCE403120CE64F
:1025030018E503120CE650E503120CE65DE5031231
:102513000CE67AE503120CE65DE603120CE694E69C
:1025230003120CE64BE703120CE656E703120CE624
:1025330068E703120CE671E703120CE67BE703126C
:102543000CE622EB03120CE603EE03120CE66E8A92
:1025530004120CE6738604120CE69D8604120CE644
:10256300388A04120CE69B8A04120CE6E38A0412EE
:102573000CE6C38804120CE6008003120CE61E85E9
:1025830003120CE6D9E002120CE60BE002120CE691
:1025930023DF02120CE6E4DE02120CE6B3DE0212C3
:1025A3000CE695DE02120CE627DE02120CE6E1DDF4
:1025B30002120CE64CDD02120CE6882C00120CE62B
:1025C300262C00120CE69BDC02120CE68EDC0212B7
:1025D3000CE6F82B00120CE6E62B00120CE663D98E
:1025E30002120CE6FBD602120CE69BD502120CE695
:1025F300F4D402120CE61FD302120CE666D10212C7
:102603000CE6EDD002120CE691D002120CE634D0A7
:1026130002120CE60AD002120CE6FECD02120CE600
:10262300CACD02120CE683CD02120CE658CD02127B
:102633000CE6AECC02120CE661CC02120CE6CFCA59
:1026430002120CE6CCCA02120CE6DEC902120CE638
:10265300AAC902120CE6E5C802120CE618C7021258
:102663000CE6C42B00120CE6A52B00120CE6722B11
:1026730000120CE609E602120CE6EBE502120CE688
:10268300CBC602120CE69CC602120CE699C60212D5
:102693000CE6F0E402120CE68CC602120CE652C6FB
:1026A30002120CE644C602120CE6FAC402120CE64D
:1026B3000AB803120CE655E402120CE676C40212C1
:1026C3000CE63CC402120CE6E0C302120CE6B3C3F0
:1026D30002120CE6C0C002120CE67EC002120CE627
:1026E30072C002120CE6D2BF02120CE609BF02123C
:1026F3000CE659BC02120CE685B902120CE646B987
:1027030002120CE6E5B702120CE691B702120CE6D0
:10271300D5B602120CE6A8B602120CE698B5021260
:102723000CE6FFB502120CE6D2B502120CE61AB59E
:102733000200000080FBE473000136360101000152
:102743000201000103010001040106060502000065
:10275300070100340801000F090401010D0100FF06
:102763000E08000017020000190100FF1A01000102
:102773001B0100051C0100081D0200001F010001D0
:1027830020010001210200002301000F24020000A8
:102793002601000127010308280200FF2A01000780
:1027A3002B0102402C0100002D0100012E0100012C
:1027B3002F0100FF30010B1C310800003A01000813
:1027C300030071003001600011007000310220032A
:1027D30050048000100061000000140063007300C7
:1027E30072006200430000001300060000000000B6
:1027F30004001200000000000000000004000400B8
:10280300370037003C0244000000000000000000D5
:102813006500000035008100000005000000830012
:102823000000010371030103010301030103010319
:102833002203020301031003000300030003000348
:102843000003000300034203000324030603000301
:1028530000030403120325032303250323030403B3
:1028630004030003000300034403000300032303E2
:1028730000036503210035038103000305030003FF
:1028830000030003030471040204600411047004D0
:102893000204020401040204100461040004140489
:1028A30063047304720462044304000413040604FF
:1028B30000040004040412040004000400040004DF
:1028C30051046400000400040004440400040004F0
:1028D3000004000465040004350481046400050455
:1028E30000048304000401017101010101011101CC
:1028F30001013101010101018001100161013B006E
:1029030014006301730172016201430100011301A9
:1029130006013D013500040112010001000100011F
:10292300000104010401330133013C01440132017C
:10293300360000010001650100013500810100013D
:10294300050182018301000103027102300160026B
:1029530011027002010202020202800210026102ED
:102963003A004100630273027202620243020002F0
:1029730013023800000200020402120200020002E5
:102983000002000204020402370037003C02440242
:1029930000023900000200026502000235028102D2
:1029A30000020502820283020002360001000600D3
:1029B30000000F0000000000000000000000000005
:1029C30003FFFF00000403FFFF0000FFFF0FF401FC
:1029D3000005C4040320000100000B0000000000F8
:1029E300000000030100004A201300EA1F01004A0F
:1029F300200200B41F0300BA1F0400C01F0500C655
:102A03001F0600D21FFFFF000001A81606D81608F4
:102A1300D2160BE416103C1602AE1605C61607B402
:102A2300160C96160DA216FF000003000300040007
:102A3300080010001F003E007B00F600EC01D703E6
:102A4300AF075D0FB91E713D0000B61AE61ABC1A36
:102A5300C21AE01AD41ACE1AEC1AF21AF81A041B84
:102A6300C81AB01AAA1AD5C5C5B5A5A59585857581
:102A7300756565555545453535252515059C36063A
:102A83003A703DD9404344AD47174B814EEA51005C
:102A9300160F00000B150B020002220F3200000676
:102AA30056777777777777777777777777777777D4
:102AB300000102030405060708090A0B0C0D0E0F9B
:102AC3009A1BAC1BB21B801AB81B7A1A861ABA1946
:102AD300B419F019F619EA19A2190C1C2A1C301C96
:102AE300121C1E1C181C0C0E020B040B0A070800F8
:102AF3000F00383C3E363B3B352B432C0001191667
:102B03001816161523030000034948424D181725CC
:102B13000502303017181921301B1D1F30303016B5
:102B2300181920231A1C1E30DA1AFE1A241C0A1B39
:102B3300101B001CBE1BC41BD01BCA1BC619CC19FF
:102B4300C019FC190005150D091008040000000048
:102B53000000D219E41900BE040A150004000E0097
:102B63000309280F010809000C040810050C087458
:102B7300F6120A6174FF121114E485108285118321
:102B8300F0858208858309780812106F750801752E
:102B93000900780812106F1244A412108274010203
:102BA300428D74F6120A618C088D09780812106F31
:102BB30075080B750900780812106F1244A40242BD
:102BC3008D74F6120A618C088D09780812106F75DE
:102BD300080B750900780812106F1244AF1243B83E
:102BE30002428DC082C0838A828B83E0D2E7F012D7
:102BF3001F24024B80C082C0837900122C80C082C4
:102C0300C083900330125C4AD083D082C3E09CA37C
:102C1300E09D500C1251AFFAA3E0122CF1600109B0
:102C2300024B8074F7120A61122C80122E2CAEF024
:102C330075F00BEDA42EFD900332E02CFEA3E03DD6
:102C4300FF740169600574026970208A828B83A313
:102C5300125DAC126D8A74026970181230AC1231B5
:102C6300BC7010E48E828F83F08008EA2403FCEBAF
:102C73001231A4EEFAEFFB1225D8023E651264511D
:102C8300EB12604C2274F4120A618A088B09125DFC
:102C9300B279008A828B83E0604E7E007F0080439E
:102CA300122CEE703B122E78F50AA3E039F50B8552
:102CB3000882850983E08C82850B83124863F8A31D
:102CC300E0F98C82850B831231C4FCE50912313A99
:102CD3001231AC126051AA0AAB0B1225D81262DE74
:102CE30012361A1230B440B802485EEEFAEFFBEA2D
:102CF30075F00BA4FAACF075F00BEBA42CFB90036E
:102D03003212714AF583E0540F2274F5120A618A74
:102D1300088B09740B1213441262E3750A01EC70F9
:102D230001ED6026EC123292ED124E8579011225E7
:102D3300C0EE7001EF606E8E828F83A3125DBA794D
:102D430002EEFAEFFB1225C0805BEE7001EF6031FB
:102D5300123291EF124E85EE2403FAEF1231B67060
:102D63000CAA08AB091225BAE9F50A80CAE50824BA
:102D730003FAE5091231B6702C7903AA08AB09806E
:102D8300C48A828B83A3E064FE7004A3E064FF70B3
:102D9300051231B3700CAA08AB091225BAE9F50A7A
:102DA3008003750A00023EE874F7120A619003304B
:102DB300125142EA7001EB6031EA75F00BA4FAACF0
:102DC300F075F00BEBA42CFBEAFEEBFF121D5C90FD
:102DD3000332125142900332E07002A3E06012EE1C
:102DE300FCEFFD7900121CD28007900332E4F0A3BC
:102DF300F0023E6574F6120A6175080075090078E1
:102E03000812106F900330122E2CAAF075F00BED00
:102E1300A42AFD7A237B00121DC27402121082E9D8
:102E2300FE600312135A02426D125C4EEC75F00BF6
:102E3300A4FC2274F7120A617E007F00800AEEFA76
:102E4300EFFB12266E12361A122ECC40F1023E65AB
:102E530074F7120A617E007F008012122E78FCA3A1
:102E6300E039FDEEFAEFFB12266212361A122ECC6F
:102E730040E9023E65EEF8EFF9122EB9E02822741C
:102E8300F7120A617E007F008020122EB5125E1FAA
:102E930088828983E0A2E7500EC2E7F0AC82AD835B
:102EA300EEFAEFFB12266812361A122ECC40DB0222
:102EB3003E65EEF8EFF9E875F00BA4F8AAF075F0AB
:102EC3000BE9A42AF990033222900330124EA6C3D1
:102ED300EE98EF9922C082C083EC7001ED60051279
:102EE30024E880097C087D007900121CD2024B8003
:102EF30074F6120A617900EA7001EB60177C008CAA
:102F030008EA25081262D7600479017C080CECC337
:102F1300940840EB02429074F7120A6174F31211A1
:102F230014ECFEEDFFE4851082851183F074011229
:102F330013441244DB1213907403121344AC82AD96
:102F430083EEFAEFFB12136CEEFAEFFB121372022D
:102F53003E6074F7120A6174F3121114ECFEEDFF74
:102F6300E4851082851183F0EAFCEBFD74031213F0
:102F7300441245127401121344123296124E8F7486
:102F8300FE68700374FF69600479018002790002AE
:102F93003E6074F7120A61EAFEEBFF122FE3701032
:102FA300122FEE64FFFC8A828B83E05CF01225D83B
:102FB3000247C874F7120A61EAFEEBFF7508008E38
:102FC300828F83E06017122FE37012122FEE8A8232
:102FD3008B83FCE05C7006E04CF01225D80247C8F6
:102FE3001225D2E9F5087401650822EE126452EF46
:102FF300124EA2122EB9E028FAA3E039FB8E828F7B
:1030030083E02274F4120A618A088B097C007D0034
:103013001230AC1231ACE508123292E509125DB6FA
:103023007900850882850983A3E064FE7004A3E028
:1030330064FF60727E007F008067122CEE605FEE9B
:10304300FAEFFBEA75F00BA4FAACF075F00BEBA406
:103053002CFB900332E02AF50AA3E03BF50B85082D
:1030630082850983A3125DA1850A82850B83A3E070
:103073006A7003A3E06B7026E50A2403FAE50B12DA
:1030830031B67014E50A2403FCE50B3400FDE508B2
:103093002403FAE5091231AC1260511262DE1236D2
:1030A3001A1230B4409402485EEA24030A0A0AEB77
:1030B30022900330125DA8C3EE9AEF9B2274F212A2
:1030C3000A618A0A8B0B8A828B83A3125DBA125D13
:1030D300B27508001231B370597E007F00804E1222
:1030E3002EB512713BE0540F6040122E78F50CA3FD
:1030F300E039F50DE50C2403FCE50D12313A3400FB
:10310300FB1224E2E964017021850C82850D83A3FF
:10311300125C43850A82850B83A3E8F0A3E912546A
:103123005712605C7508011262E012361A122ECC37
:1031330040ADA9080240FD3400FDE50A2403FAE589
:103143000B2274F5120A61EAFEEBFF8E828F83A3D2
:10315300125DBA7C007D00EE24030A0A0A1231AB29
:10316300EEFAEFFB1225D2E9F50A7401650A702E17
:103173001247CD125C43122E7CF508A3E039F50902
:10318300850882F583A31232961231C4FAE5091237
:1031930031B6700AE5082403FCE5091231A4023EA6
:1031A300E83400FDEE2403FAEF3400FB12136C2223
:1031B3001230AC1231BC6401223400FB121372E9E9
:1031C30022A3E8F0A3E9F0E50824032274F2120A2B
:1031D3006174E6121114EAFEEBFF123291EF125DF5
:1031E300B6750801750A00750B00750C00750D00A6
:1031F300E4851082851183F0EE2403FCEF3400FD97
:1032030074031213441246B96401702D740B121324
:10321300441250F1123292EF124E8C740112134485
:10322300123296A3E0687003A3E0696053851082AD
:1032330085118385820A85830B740D121344123220
:10324300A4125C43740E121344124E8F740D1213A6
:1032530044AA82AB83121390E96401700B740D12BC
:10326300134485820C85830D780C12106FAC0AAD64
:103273000BEEFAEFFB121CDE7402121082E9F50862
:10328300EEFAEFFB12138AA908741A0240FAEE123F
:1032930064522212329A22E0F8A3E0F98E828F83DD
:1032A30022E41232A922F08E828F83A322C082C02D
:1032B300831232D2EC75F012A4FCAAF075F012ED71
:1032C300A42AFD79FF7A747B17121CD2024B8090DB
:1032D3002B5DE493FC740193FD2274F7120A61E9F8
:1032E300FEEAFF7C007D0078007900802DE8FAE992
:1032F300FBEA75F012A4FA85F00875F012EBA42529
:103303000812374BC39E400FE0FAEFC39A4008EC14
:1033130024010CED3400FD123C4D902B5D123BD487
:1033230040CBECFAEDFB023E65C082C083780079A6
:10333300008003123C4D902B5D123BD4500C12378E
:103343003564FF70EE1237D980047A007B00024B9C
:103353008074F0120A6174F31211148A0E8B0F8CAD
:10336300088D09890AEC7001ED6015AA08AB0912F2
:1033730013DE8A0C8B0DAE0CAF0DEE7001EF704BAC
:103383001213B48A0C8B0DA80CA90DE8FEE9FFE813
:103393007001E960367401851082851183F0121380
:1033A30044E50EF0A3E50FF0AC08AD097403121366
:1033B300441234EE740B121344124AA4124E8F12A9
:1033C300346AAA0EAB0F1218FA8006EE7001EF6092
:1033D300727A00E50A6007C3940550027A048E826C
:1033E3008F83E50EF0A3E50F123DEDE50AF0EA8EBB
:1033F300828F83A3A3A3A3A3F074028E828F83A3DC
:10340300A3A3A3A3A3A3A3F074018E828F83A3A377
:10341300A3A3A3A3A3A3A3126997A3F0EE2410125B
:103423003463E4F0A31248EFA3A3F01247CDE4F012
:103433009089FA78081212E2EE240C1234637808A9
:103443001212C4123685400EE4901BFFF07AFF7B04
:103453001B7941122500EEFAEFFB026D10EE240DED
:10346300F582EF12604C22E48E828F83A3A3A3A381
:10347300A3A3F0900380125C4E2274F2120A6174CB
:10348300F3121114EAFEEBFF8C088D09750A00AAEA
:1034930008AB091213DE8A0C8B0DA80CA90DE8707A
:1034A30001E9604088828983E06E7003A3E06F6066
:1034B3003388828983A3A3A3A3E0C39405502588FB
:1034C30082898312605C7401851082851183F012F6
:1034D300134412605CAC08AD097403121344123434
:1034E300EE750A01A90A740D0240FA12451D121362
:1034F300A22274F6120A611258AA7001E9601488B4
:10350300828983A3A3A3A3E06009C394055004792C
:10351300018002790002429074F6120A611258AADD
:103523007001E9601488828983A3A3A3A3E06009DF
:10353300C39403500479018002790002429074F627
:10354300120A611213D88A828B83E5827002E583A3
:10355300600BA3A3A3A3E0700479018002790002A6
:103563004290C082C083EAFCEBFD7A007B00121319
:10357300E4024B80C082C0837C007D0080F074F441
:10358300120A6174F31211148A0A8B0B8C088D09C9
:103593007E007F008021123AEC12134412361F6022
:1035A300137403121344AC82AD83AA0AAB0B122427
:1035B300E2E9703812361A123611504912398A600C
:1035C300F3E50A7002E50B70CD74FF6508700474AF
:1035D300FF650960DFEEF8EFF9E875F012A4F81261
:1035E3003AD565087004A3E0650970C8EE75F0125A
:1035F300A4FEAAF075F012EFA42AFFEE2474FAEFEA
:103603003417FB80047A007B00740D02485B902B17
:103613005D1241A3022ED3123976FF22E8F0A3E90B
:1036230012453712139CE92274F4120A6174F312DF
:1036330011147508001213DE8A0A8B0BAE0AAF0B46
:10364300EE7001EF602A7401851082851183124A9E
:10365300D6F8A3E0F9740B12134412452F12138406
:103663007C127D0079FFEEFAEFFB121CD275080184
:1036730012368550097401901BFFF01217DAA9085E
:1036830080877A0479001213AE902B5D1241A3EA6E
:1036930098EB992274F7120A61E9FE74FE6A7003CB
:1036A30074FF6B7800790070058059123C4D902BA4
:1036B3005D123C40504EE8FCE9FDEC75F012A4FCB1
:1036C300AFF075F012EDA42F126D22ED1239A26046
:1036D300DAE8FCE9FDEC75F012A4FC75F012EDA438
:1036E3002FFDEC2474F582ED3417F583E06A700343
:1036F300A3E06B70B6800A1237356005C3940540AA
:103703001A123C4D902B5D123BD4501FEE70E81201
:10371300373564016005E0640370E6E875F012A4D0
:10372300F8AAF0123ADC125D9F80047AFE7BFF0256
:103733003E65E8FAE9FBEA75F012A4FAACF075F01D
:1037430012EBA42C12374B22FBEA2478F582EB34DC
:1037530017F583E0221213F0024B80C082C08379F5
:103763000180F274F0120A618A0E8B0F7A047901D8
:103773001213AE8A08AE08EE7001EB6044EAC3335D
:10378300FAEB33FB121D5C8A0A8B0B8A088B09EA5E
:103793007001EB60287AFE7BFF1213F674FE6A70E9
:1037A3000374FF6B6021850A82850B83125142E506
:1037B3000A2402F50AE50B3400F50B80DC7E008059
:1037C30006750800750900EE850E82850F83F0AA41
:1037D30008AB09026D15E875F012A4F8AAF075F0AC
:1037E30012E9A42AF9E82474FAE93417FB2274F6DF
:1037F300120A61750800750900780812106F902B82
:103803005D1242A17403780812123E12397E7B00C6
:10381300121DC27402121082E9FE60031214080220
:10382300426D74F6120A6174FE1211141242CE0232
:10383300427174F6120A6174DF1211147E0085104E
:1038430082851183858208858309780812106F7534
:1038530008028E09780812106F7C007D001243B6AF
:10386300121082E960030238F38079740F12134453
:10387300858208858309780812106F750808750911
:1038830000780812106F8E087403780812123E74C1
:10389300022508FCE43509FD1243B6121082E970D3
:1038A3004274021213447401F07411121344125C33
:1038B30043740D121344124E8F7402121344AA82DE
:1038C300AB8312139CE9601B7413121344E0F97465
:1038D30005121344AC82AD83740F121344125DA11D
:1038E3001213BA0E8E081243A8E499500302386EDD
:1038F300EEF9742102428D74F6120A6174FE1211FC
:1039030014851082851183E4F0A3F0FE804E1239F2
:103913008A6046EEF8EFF9E875F012A4F875F01234
:10392300E9A42AF9E82474F508E93417F5097808B5
:1039330012106F750808750900780812106F740467
:1039430012134412410A7403780812123E12397E8C
:103953001244A7121082124494123976FF123611C0
:1039630040AC851082851183858208858309780898
:10397300024271EE24010EEF34002274022508FC8A
:10398300E43509FD7A2222EEF8EFF9E875F012A486
:10399300F8AAF075F012E9A42AF9E8126D24E912E5
:1039A300375264FF2274F7120A617A007B008009A0
:1039B30019EA24010AEB3400FB1232D2C3EA9CEB6E
:1039C3009D503AEAFCEBFDEC75F012A4FCAEF075E9
:1039D300F012EDA42E126D22ED123752C39405504E
:1039E300D0E970CCEA75F012A4FAACF075F012EBE2
:1039F300A42CFBEA2474FAEB3417FB80047A007BD3
:103A030000023E6574F7120A6174F31211147E000A
:103A13007F00023AA4E50812602C125D9FEEF8EFD6
:103A2300F9E875F012A4F8ACF075F012E9A42CF9DA
:103A3300E8126AD26A7003A3E06B6044E50875F08C
:103A430017A4F8AAF0EAF9E824EEF582E93418F5A8
:103A530083124634121344E0687003A3E0696020C4
:103A6300E50875F017A4F8EAF9E824F0FCE934183E
:103A7300FD7403121344AA82AB831224E2E960119A
:103A8300E50875F017A424EEFAE5F03418FB1219D3
:103A9300060508902B681262155003023A18123675
:103AA3001A1236115029EEF8EFF9E875F012A4F85E
:103AB300AAF0123AD564FF7004A3E064FF60DF123A
:103AC3003AEC12134412361F60D475080080C40206
:103AD3003E60123ADCF583E02275F012E9A42AF97C
:103AE300E82474F582E93417227401851082851164
:103AF30083F0EEF8EFF9E875F012A4F875F012E927
:103B0300A42AF9E82476F582E93417124EA4740B3B
:103B13002274F6120A61124295FC740193FDEC853E
:103B230008F0A4CCAAF08509F0A42AFA8508F0EDE0
:103B3300A42AFD79FF7ABB7B1B121CD29003357438
:103B430038F0A37414F09003377432F0A37414F0B4
:103B5300900339745CF0A37414F090033B746EF01B
:103B6300A37414F090033D7474F0A37414F09003E1
:103B73003F747AF0A37414F09003417480F0A3743B
:103B830014F0E4900334F0024290C082C0837800C2
:103B930079008003123C4D123BD1501CE8FAE9FB3B
:103BA300EA75F00EA4FAACF075F00EEBA42C123B00
:103BB300C270E112403E80047A007B00024B80FB1E
:103BC300EA24BBF582EB341BF583E064FF22902BE0
:103BD3005FE493FA740193FBC3E89AE99B2274F7B9
:103BE300120A617A007B00780079008045E8FCE9DD
:103BF300FDEC75F00EA4FCAEF075F00EEDA42EFDF9
:103C0300EC24BBF582ED123BC96024E8FCE9FDEC32
:103C130075F00EA4FC75F00EEDA42EFDEC24C0F59A
:103C230082ED341BF583E0FCEA2CFAEB3400FB1243
:103C33003C4D902B5F123C4040B3023E65E493FC45
:103C4300740193FDC3E89CE99D22E8240108E9344B
:103C530000F92274F1120A6174FC12111474021235
:103C63001344125142890E8C088D0B7E007F001283
:103C730014987402121344125DA112149E12513C43
:103C830074021213441258EB7007750A018E0980EF
:103C9300058E0A850809851082851183E064FE700C
:103CA30004A3E064FF7003023DC38E08800205088D
:103CB30085080C902B5F126D5A4003023D56A808ED
:103CC300E875F00EA4A9F0124135650E70E0E875B1
:103CD300F00EA4124102650A70D4125C3DE508752A
:103CE300F00EA424BDF582E5F0341BF583E0687083
:103CF30003A3E06970B8A808E875F00EA4A9F0243E
:103D0300BFF582E9341BF583E0650970A1E875F01E
:103D13000EA424BBFEE9341BFF750800E508C39518
:103D23000B4003023DC3E508C333F8E433F97413CE
:103D3300121344123DDC121444E97013E508C33333
:103D4300F8E433F97413121344123DDC12145005D2
:103D53000880C912142C8A0C8B0DAE0CAF0DEE70BB
:103D630001EF605C8E828F83E50EF0A3E50A124AB1
:103D7300BF8E828F83A3A3E8F0A3E9123DEDE5098B
:103D8300F0902B6CE493C3950B5004E493F50B8EE6
:103D9300828F83A3A3A3A3A3E50BF074131213448D
:103DA30012410A750A00780812106BE50BC333FC45
:103DB300E433FDEE2406FAEF3400123DD5121082EF
:103DC300EEFAEFFB7404800274121210827F070272
:103DD3000D53FB121CC674032212713F123DE322E2
:103DE300E0FCA3E0FDEEFAEFFB221232A9A3A3A3AA
:103DF30022C082C083902B611232D579FF121CD26C
:103E03007901024B8074F7120A61EA7001EB604991
:103E13008A828B83A3A3A3A3A3A3E5827002E58372
:103E230060377E0080010E8A828B83A3A3A3A3A3A2
:103E3300E0FFEEC39F5022EEC333F8E433F9EA28E0
:103E4300F582EB39F583A3A3A3A3A3A3E06C7003CB
:103E5300A3E06D70D17901800279008005740D12A1
:103E630010827F01020D5374F5120A61EA7001EBAF
:103E7300605F8A828B83A3A3A3A3A3E06063EA2486
:103E830006F8EB3400F98A828B83A3A3A3A3A3E0F0
:103E9300F509750800800DEA2405F582EB125D949F
:103EA300603F0508E508C395095026E508123F3031
:103EB300E06C7003A3E06D60DE123F361262E388AC
:103EC30082898312605CE824020808E93400F980DF
:103ED300D18A828B83A3A3A3A3A3E0600479018087
:103EE3000279008002A90A7F03020D5374F7120AB4
:103EF30061EA7001EB60318A828B83A3A3A3A3A33E
:103F0300E0C0E0902B6CE493FED0E0C39E5019EA2E
:103F13002405F8EB1272A5123F30126D8A8882894C
:103F230083E004F0790180027900023E65C333FE29
:103F3300E433FF127153026D7374F4120A6189083A
:103F4300EAFEEBFF8C098E828F83A3A3A3A3A3A313
:103F5300A3A3E0640170098E828F83125C4A8003FD
:103F630012414074FE6C700374FF6D70077A007B1E
:103F730000023FFE78007900801412400164017052
:103F83000A12401F7003A3E06D606D123C4D123B9B
:103F9300D150DAE8FAE9FBEA75F00EA4FA85F00AE3
:103FA30075F00EEBA4250AFBEA24BBF582EB341B68
:103FB300F583E0650870D48E828F83A3A3A3A3A3A4
:103FC300A3A3A3E0640160B212400170BE12401FBC
:103FD3007003A3E06D70B4E8FAE9FBEA75F00EA490
:103FE300FA75F00EEBA4250AFBEA24BFF582EB3445
:103FF3001BF583E06509709312403E02485EE8FAC0
:10400300E9FBEA75F00EA4FA75F00EEBA4250AFBA2
:10401300EA24BCF582EB341BF583E022E8FAE9FBE2
:10402300EA75F00EA4FA75F00EEBA4250AFBEA2458
:10403300BDF582EB341BF583E06C2212404222E88B
:1040430075F00EA4F8AAF075F00EE9A42AF9E82495
:10405300BBFAE9341BFB2274F2120A618A0A8B0B46
:104063008A828B83A3A3A3A3A3A3A3A3E064017066
:10407300098A828B8312410A80071214868A088B6D
:104083000974FE6508700474FF650960687E007F2B
:1040930000805A850A82850B83A3A3A3A3A3A3A3AA
:1040A300A3E064017041EEF8EFF9E875F00EA4F8AF
:1040B300AAF075F00EE9A42AF9E81241026401702E
:1040C30029EEF8EFF9E875F00EA4F875F00EE9A4FF
:1040D3002AF9E824BDF582E9341BF583E06508700D
:1040E30004A3E06509700312411212361A902B5F84
:1040F300123614409E80031210827F06020D532451
:10410300BCF582E9024019E0F508A3E0F50922EEC7
:10411300F8EFF912404212143E22EEF8EFF9E87577
:10412300F00EA4F8AAF075F00EE9A42AF9E81241FA
:10413300352224BBF582E9341BF583E02212148671
:104143008A0A8B0BAC0AAD0B2274F3120A61890C39
:10415300EAFEEBFF750A00750B0075080075090090
:104163008029E50875F00EA4F8AAF075F00EE509AC
:1041730012412D650C7011EEFCEFFDAA82AB831288
:104183001444E960031242281241AC902B5F1241A0
:10419300A3E50898E5099940C9AA0AAB0B024A327C
:1041A300E493F8740193F9C322E5082401F508E5C3
:1041B300093400F5092274F1120A61890EEAFEEB53
:1041C300FF8C09750800750A00750B00800505084A
:1041D300124228902B5F126AE4E50B995040E50ADE
:1041E30075F00EA4F8AAF075F00EE50BA42AF9E811
:1041F30024BBF50CE9341BF50D850C82F583E065D2
:104203000E70CDEEFCEFFDAA0CAB0D121444E96069
:10421300BFE508C3950940B6AA0CAB0D80047A002C
:104223007B00023DD0E50A2401F50AE50B3400F5D5
:104233000B2274F6120A61750800750900780812DA
:10424300106F12429512447975832B758261E49342
:1042530028FCA3E49339FD7A417B00121DC274024A
:10426300121082E9FE6003121474EEF9801F12101B
:104273006F750802750900780812106F7C007D00C5
:104283007A221244A712108274021210827F020251
:104293000D53902B611242A1902B5FE49322E49380
:1042A300F508740193F5092274F6120A6174FE127B
:1042B30011141242CE12106F7508027509007808A6
:1042C30012106F7C007D007A4180B78510828511C2
:1042D30083E4F0A31244C585820885830978082204
:1042E30074F4120A6174E71211147E007F008510C2
:1042F30082851183858208858309780812106F757A
:1043030008028E09780812106F7C007D007A411232
:1043130043B8121082E9600302439F8E08807574CC
:104323000212134485820A85830B780A12106F9058
:104333002B61120EB11244671243B8121082E97056
:10434300507410121344AC82AD83740412134412DC
:104353005DA112148CE96039740812134485820A32
:1043630085830B780A12106F7409121344E0FD74ED
:1043730008121344E0FC7412121344AA82AB837430
:1043830004121344E0F91214387402121082123624
:104393001A1241AC1243A8E509994083EEFAEFFBE8
:1043A300741902485B851082851183124EA6C3E5FA
:1043B3000898227A227B00121DCE74042274F5120F
:1043C3000A6174F0121114851082851183E4F0A33D
:1043D300F0FE805712411D64FF604D85820885837E
:1043E30009750A00780812106B902B611232D5748C
:1043F30005121344AA82AB83123DD61210827402B3
:10440300121344858208858309780812106F902B54
:1044130061120EB1740412134412410A124467125A
:1044230044A7121082124494123976FF902B5F1224
:10443300361440A0851082851183858208858309FF
:10444300780812106F750802750900780812106F4A
:104453007C007D007A411244A7121082741012105E
:1044630082023EEA902B61E493124479740228FCA1
:10447300E439FD7A4122F8740193F9E88508F0A440
:10448300C8AAF08509F0A42AFA8508F0E9A42AF954
:1044930022851082851183E02401F0A3E03400F02B
:1044A300221244AF7B00121DC8740422EA75F00B7C
:1044B300A4FAACF075F00BEBA42CFBEAFCEBFD7A51
:1044C30023221244C922F085108285118322A3A3DB
:1044D300E508F0A3E509F022EAF0A3EB1245372241
:1044E300C082C08374F31211141246BE70128A8202
:1044F3008B8312463412134412452F121390800CEF
:10450300EAFCEBFD7403121344124512024B7512BD
:1045130045162212451D12139622AA82AB8312134B
:104523006C851082851183AA82AB8322E8F0A3E90C
:104533001245372212453B221244C980EA74F7120E
:104543000A6174F3121114ECFEEDFF7404851082FA
:10455300851183F0740B121344EAF0A3EB12362394
:10456300F508601D74038E828F83A3A3A3A3A3A363
:10457300A3A3F0121344AC82AD83EEFAEFFB122433
:10458300E8A908023E60C082C08374F31211147458
:1045930004851082851183F0740B1213441244DBDB
:1045A30012139C7401024B77125DA8740D2274F6EA
:1045B300120A6174F3121114900334E0706E7404E0
:1045C300851082851183F0900373124634121344CD
:1045D300124E8F12179EEAFCEBFD74031213441262
:1045E30034EE1217AA8A088B09A808A909740112C4
:1045F3001344E0687003A3E069602B74FE687003E2
:1046030074FF6960217401121344124E8F740312F4
:104613001344AA82AB831217B0851082851183AA33
:1046230082AB831213A27401900334F0740D02421F
:104633008D124EA6740122C082C08374F31211142A
:104643001246BE8A828B83701E124634121344E8CC
:10465300F0A3E9125E8A705B851082851183AA82BA
:10466300AB831213A2804CA3A3A3A3A3A3A3A3E08E
:1046730064037010EAFCEBFD74031213441246B991
:10468300703180D48A828B83A3A3A3A3A3A3A3A300
:10469300E0640170128A828B83125C43740B1213E1
:1046A30044E8F0A3E9800B740B12134474FEF0A3E7
:1046B30074FFF0024B75124516E9227404851082CB
:1046C300851183126971A3A3A3E064022274F51216
:1046D3000A61EAFCEBFD7A007B008A088A0978000C
:1046E30079008003123C4D902B5FE493FE74019399
:1046F300FFC3E89EE99F5038E8FEE9FFEE75F00E30
:10470300A4FE85F00A75F00EEFA4250AFFEE24BB84
:10471300F582EF123BC960CCAE08AF0974012EF5E8
:1047230008E43FF509EC6E7002ED6F70B712403E7E
:10473300023EEAC082C08390034874C0F0A374169B
:10474300F090034A74BAF0A37416F090034E740405
:10475300F0A37415F0024B8074F7120A61EAFEEBC2
:10476300FF900382E064086019E0640460148E82A1
:104773008F83E0640170441247CD1258BEE0640693
:1047830070398E828F83A3A3E064FE7004A3E06478
:10479300FF60288E828F83A3A3126D637003A3E04F
:1047A30069700BEE2415F582EF1262DA60081217B6
:1047B30062E9F508800812176880F67508C2EEFAF8
:1047C300EFFB121D62A908023E65EE240B1260493D
:1047D3002274F4120A618A088B098A828B83E0F8B7
:1047E300A3E028FAE43400FB121D5C8A0A8B0BAEAB
:1047F3000AAF0BEE7001EF6059850882850983E0EB
:10480300FC7D007900121CD28E828F83A3A3125DDC
:10481300BA1217A48E828F83A3A3A3A3126109F8EC
:10482300EE28F8EF3400F91247CDE8F0A3E9124877
:1048330063C0E0123460D0E0F01217B6EE240E121B
:104843003463E9124AAAE0C0E0EE2411123463D0C3
:10485300E0F0EEFAEFFB80031210827F04020D53A7
:10486300124AAFE02274F4120A6174EB121114EAD3
:10487300FEEBFF900344E07002A3E070687A077BCD
:1048830000121D5C900344125142900344E07002F5
:10489300A3E0604D900344125C4A8F838E827407B9
:1048A300120FCE8E828F8378081212E285108285D2
:1048B300118378081212C48E828F83A3A3A3A3E06B
:1048C300C0E07405121344D0E01248EFE0C0E07476
:1048D30004121344D0E0F07407121344124A3780D1
:1048E30006791080027901741502485B1248F3229D
:1048F300F08E828F83026D73C082C083900344E085
:104903007002A3E0600D90034412621D900344E41F
:10491300F0A3F01216DE1218A6024B8074F3120AEB
:104923006174EB121114ECFEEDFF74221213447840
:10493300081212E27426121344E0FC742712134483
:10494300E0FD7428121344E0F50C740F6C700574C9
:104953000F6D6012901C6CE06402700579C1024A0D
:104963002DECC39D40F690038378081212C4E9909E
:104973000389F0EC900387F0ED900388F0E50C9049
:10498300038AF074FF6A700374FF6B701F901C79C5
:10499300E064FF7004A3E064FF7005121CE4800C64
:1049A300901C79124AB8E8F0A3E98007900380EAE3
:1049B300F0A3EBF0EE7001EF6017EEFAEFFB1219C4
:1049C30066E96401700BEEFCEFFD7A947B0312241D
:1049D300E8900373E4F0A3F0900376F0A3F0900360
:1049E30093F0901C6CE06402700A740F900387F0DC
:1049F300900388F07405900382F07404121344E466
:104A0300F090038378081212E2851082851183786F
:104A1300081212C4900389E0C0E07405121344D055
:104A2300E0F07407121344124A3774151210827F90
:104A330005020D53E4124A3C2212453B1225122271
:104A4300C082C083900343E07003121FE41214D4A6
:104A5300024B80C082C083900343E07007E4901B45
:104A6300FEF080317401901BFEF0900343E064FF7D
:104A730060237C41E0C394415002E0FCECFAE0C3C4
:104A83009AF0EC75F0E8A4CCAAF075F003A42AFD23
:104A93007A80126D7F7AFE7B1B7941122500024BCF
:104AA3008012329AA3A322124AAFA322F08508826E
:104AB300850983A322124EA690038022126D95F8D6
:104AC300A3E0F922C082C083EB90038AF01216CCD4
:104AD300024B801232A9A3E02274F7120A6174F820
:104AE300121114EAFEEBFF7900900382E064087070
:104AF3004085108285118374FD125DBC12179E746C
:104B03000212134412514274051213441232A4E0E8
:104B1300C0E07404121344D0E0124B39C0E07406B1
:104B2300121344D0E0F07407121344124E95121777
:104B3300F87408023E62F0023000C082C083900322
:104B4300547488F0A37415F09003EE744CF0A374BE
:104B530018F090035874B8F0A37415F090035A74C6
:104B630088F0A37415F090035C74BEF0A37415F081
:104B7300800B740B1213441245AB121082D083D0F6
:104B830082020CD974F4120A6174F91211148A089E
:104B93008B098C0A8D0B851082851183780812127C
:104BA300C47404121344E9F07405121344E4F0745A
:104BB30006121344124E951214BC740702485B7418
:104BC300F4120A618A088B098A828B831262E3EEEC
:104BD3007001EF7003024CE0900310E07002A3E059
:104BE30060158A828B83A3A3E0F9EEFAEFFB9003AF
:104BF300101258BE1227398E828F83A3A3A3A3A3B7
:104C0300A3A3A3A3E06402707F8E828F83A3A3A3D5
:104C1300A3A3A3E054027003024CAF850882850965
:104C230083A3A3E064E97003024CAF8E828F83A356
:104C3300A3A3A3A3A3A3A3A3A3E07014901C6EE058
:104C4300048E828F83A3A3A3A3A3A3A3A3A3A3F0ED
:104C53008E828F83A3A3A3A3A3A3A3A3A3A3E014DD
:104C6300F074048E828F83A3A3A3A3A3A3A3A3A3FC
:104C7300F0901C6F124AA4A3A3E8F0A3E9126F7685
:104C83007001EB70031269798E828F83A3A3A3A3B0
:104C9300A3A3A3A3A3E0640260128E828F83A3A3C2
:104CA300A3A3A3A3A3A3A3E0640670318E828F837F
:104CB300A3A3A3A3A3A3E0A2E050228508828509AE
:104CC30083A3A3E0F9EEFAEFFB1226268E828F83ED
:104CD300A3A3A3A3A3A3E054FEF0A3E0F002485EC2
:104CE30074F0120A6174DD1211148A0C8B0D8C0E90
:104CF3008D0F743312134478081212E27F00740E7E
:104D0300121344AC82AD83122584740E121344E053
:104D1300A2E5500D0F125D9A122632E96003024E8E
:104D230038740E121344E0A2E6500E740F121344AB
:104D3300E0540370047E0180027E00740E1213445B
:104D4300E05403FA74026A7009125D9A1226920201
:104D53004E3874016A7043EE6003124E6B740E1288
:104D63001344A882A9837403121344E8F0A3E9123D
:104D73004E9A851082851183124E8F850C82850D84
:104D830083A3A3A3A3A3A3E0C0E07402121344D09C
:104D9300E0124E96122710024E38EA6003024E3894
:104DA300740D1213447402124E9A740512134412B2
:104DB3004E8FEE6008740E121344124E6B740E1273
:104DC3001344E0540C64047071E50C240FF582E580
:104DD3000D1262DAC0E07420121344D0E0F09003A5
:104DE30012E07002A3E0604D1217A48A0C8B0DA889
:104DF3000CA90D7405121344E0687003A3E06970F5
:104E0300347808121067EFF5087808121073780EDB
:104E130012106FEEF97415121344AC82AD83740C47
:104E2300121344AA82AB839003121258BE1227397D
:104E330074071210827423026D12780812106778B7
:104E43000E12106F900380120E84EFF9740D12137B
:104E530044AC82AD837416121344AA82AB83122628
:104E63001A740812108280CD124E7812604C125DB3
:104E7300A8121C6022AC82AD83E50C240BF582E5FD
:104E83000D22124EA2126451EB12604CE8F0A3E91A
:104E9300F022E412453722F0124E7C124EA2223445
:104EA30000F583E0024AC2C082C083121EE2024BB5
:104EB30080C082C083121EE8024B80C082C083126E
:104EC3001EEE024B80C082C083121EF4024B80741C
:104ED300F7120A617409121344E0F50878081210F6
:104EE30073121F007401023E62C082C083121F0C42
:104EF300024B80C082C083121F12024B80C082C04B
:104F030083121F18024B8074F7120A61EAFEEBFF4B
:104F1300740169701079001215FA7C1E7900EEFA9B
:104F2300EFFB12157C023E6574F4120A6174F912E8
:104F330011148A088B098C0A8D0B741312134412F3
:104F43005DA19011CAE07002A3E06027E985108299
:104F5300851183F0740112134478081212C4EAF81D
:104F6300EBF9740512134412452F9011CA1258BE5F
:104F7300122739024BBDC082C083121F48024B80E7
:104F830074F7120A61901C01E0F97F00800B125143
:104F9300CC540D64017001190F1251C45003E97010
:104FA300ED023E6574F7120A61901C02E0F97F007E
:104FB300800B1251CC548D64817001190F1251C4AE
:104FC3005003E970ED023E6574F2120A61890AE941
:104FD30075F006A4F8A9F0740C28FEE439FFEA2E54
:104FE300FAE43FFB121D5C8A088B09EA7001EB604F
:104FF30029EEFCEFFD7900121CD2126446E50AF09B
:10500300E5082EF8E5093FF9850882850983A3A3FE
:10501300A3A3A3A3A3A3A3124E8FAA08AB09024081
:10502300FD74F6120A618A088B09121558901C0048
:10503300E0FAE9C39A4009900350125DA112155E8C
:10504300E5082402FEE5093400FF90035212645779
:10505300F0900352E004F0AA08AB091215648E82A3
:105063008F83E002426EC082C08379009003508038
:105073000109125DA18A828B83E5827002E5837048
:10508300F0024B8074F7120A61EAFEEBFFEE700147
:10509300EF6058900350E07002A3E0604E9003501D
:1050A3001258D67A007B00800FAA82AB831258D69F
:1050B300E5827002E5836033EE65827003EF6583FA
:1050C30070E79003501250F1687002EF698E828F7F
:1050D300837008125C439003508003126F6A12506E
:1050E300F61226E0EEFAEFFB121D62023E65124E47
:1050F300A6EE22E8F0A3E9F0023DE8C082C0839067
:105103000350800488828983125C43E87001E9605C
:105113000B88828983E07002A3E070E88A828B8324
:10512300E4F0A3F0E87001E96006888289838003D4
:10513300900350125142024B80851082851183EAFD
:10514300F0A3EBF02274F7120A61E9FC900350809C
:10515300048A828B831251BF7001EB60177E00803B
:10516300010E1251AFFDEEC39D50E6EE1251E56CF8
:1051730070EF80047A007B00023E6574F7120A61C7
:10518300E9FD7F0080010F1251AFFEEFC39E50195E
:10519300EF1251E56D70EFEF75F006A4F8A9F01268
:1051A300649074111251F44CF0023E651251B32213
:1051B300EA240BF582EB3400F583E022125DA8EAC2
:1051C300221251B3FCEFC39C22EF75F006A4FCAD91
:1051D300F0EA2CFCEB3DFD74112CF582E43DF583E4
:1051E300E02275F006A4F8A9F0EA28F8EB39F9747F
:1051F3001028F582E439F583E02274F6120A61126D
:1052030016727A008011EA126155125DC612527B42
:10521300F0A3126760F00A902B70126D5040E77A8A
:1052230000801B8A087509007403780812123E1265
:10523300672F125DC2A3A3A3A3A3A3A3F00A902B7A
:105243006D126D5040DD7A00801A8A08750900746A
:1052530003780812123EE5082446F582E509341B5B
:10526300125DB80A126D4D40E1902B67E4939003F1
:105273005EF0126D79024290A3125280221267608F
:10528300026D7474F1120A6174F5121114EAFEEBE3
:10529300FF89088C09E9A2E050127EFC7FFFA2E19E
:1052A3005005D2E4025350D2E30253501216548AEB
:1052B3000A8B0BA80AA90B900373E0687003A3E0A1
:1052C3006970057900025432AC087902EEFAEFFBFB
:1052D30012164EE960EDE508F50A780A121073120A
:1052E3005437121082E96003025430E508C2E5F531
:1052F300089003C0E07058E508A2E6405274031218
:105303001344AC82AD83EEFAEFFB121378E97039E4
:10531300125C47EEFAEFFB1218E88A0A8B0BA80A15
:10532300A90BE87001E96027E824020A0AE91231AF
:10533300BC601CE50A2402FCE50B3400FD74031277
:105343001344AA82AB831224E8E508D2E5F508905A
:105353000353E0F50E900373125C54780A12106F36
:105363007D017C00900353E0F9AA0AAB0B121606E9
:105373007402121082E9FA900353E004F0EA600326
:10538300025430E508A2E550047A0E80027A0674CE
:105393000112134412646C8A0A8B0BEA7001EB70DE
:1053A3000302542C125447E50A241AF582E50B1222
:1053B3003466EAF0A3EB1254571246348882898389
:1053C300F074785508125525E50EF0EE888289832E
:1053D300A3A3A3126746F0E488828983A3A3A3A3AC
:1053E300A3F0E508A2E550147403121344AC82AD94
:1053F30083E82406FAE93400FB1224E8850A82854F
:105403000B83A3A374FD125DBCE5096013C3941E53
:10541300500EE50A2413F582E50B123466E509F014
:10542300AA0AAB0B1214B080067910800279C774F4
:105433000B023DCD79027CFE7DFFEEFAEFFB1215E8
:10544300C4740122EA2417F582EB12604C7401F054
:1054530012179E22F0E50A126452E50B12604C22E9
:1054630074F4120A618A088B09E9FE12182EE960A6
:10547300077AFF7BFF025518901C6CE064026003FF
:1054830002550B7900AA08AB091265FE8A0A8B0B39
:10549300A80AA90BE87001E9605888828983A3A34D
:1054A300A3A3A3E06401701C12551B125522E064F0
:1054B300FE7004A3E064FF602B88828983A3A31298
:1054C3005DA1805188828983A3A3A3A3A3E064037E
:1054D300602888828983A3A3A3A3A3E06404700440
:1054E3007AFE808F88828983A3A3A3A3A3E06402A7
:1054F30070089003BFE06402700E126AEB7001EB58
:105503006006AA08AB09800DAA08AB0990035412E0
:1055130058BE12273902485E900372E00258DCA39A
:10552300A3A3A312675BA32274F7120A61EAFEEB3B
:10553300FF1213C6E9700AEEFAEFFB1213D2E96009
:1055430006EEFAEFFB80047AFE7BFF023E6574F001
:10555300120A618A0A8B0B8C0E8D0FE9FE75080007
:1055630012182EE979006003025636AA0AAB0B1211
:1055730065D1A80CA90DE87001E9601988828983B7
:10558300A3A3A3A3A3E06402704F9003BFE064024C
:105593007003025634AA0AAB0B90035A1258BE1278
:1055A30027391213D88A0C8B0DA80CA90DE87001AA
:1055B300E9607E88828983A3A3A3A3A3E0A2E0502A
:1055C300707F01A2E150247901AC0AAD0BAA0EABA6
:1055D3000F1215A6E97020805888828983A3A3A39C
:1055E300A3A3E06403704A7F02800C88828983A3AB
:1055F300A3A3A3A3D2E1F0900373E0650E7004A309
:10560300E0650F70107C1EEEF9AA0AAB0B12157C35
:10561300750801801CEFF9AC0AAD0BAA0EAB0F1293
:1056230015A6E9700C750801EEF9AA0AAB0B121561
:10563300FAA908026D1574F1120A6174EE121114BD
:1056430012513C8C088D099003F4E07002A3E060D2
:10565300121271217002E5836004A3E070057900E2
:105663000258A7851082851183E0241DF50CA3E061
:105673003400F50D850C82F5831258D6A3E0F50AA4
:10568300125A5AFA88828983A3A3A3A3E0F9EAFEF4
:10569300E9FFAA08AB09121600E9FA850C82850D09
:1056A30083126D6CE02AF50B530A78780812106F99
:1056B3007D00AC0BA90E7402121344125908121088
:1056C30082E9FA74036A6096EA70447418550A70A2
:1056D300030257CEE50AD2E0F50AA2E45004D2E170
:1056E300F50AE50AF50C780C1210737901AC08ADD4
:1056F30009E9121344125901121082E9701174213D
:105703001213441258CF126D901258E1121F0674EF
:10571300211213441258BEE064FF7004A3E064FF37
:10572300603B9003BFE06402700302566185108200
:10573300851183E01258E11258BB122739EA650834
:105743007003EB650960030256611258B7122739DB
:1057530074211213441258BEEAF0A3EBF078081236
:10576300106F7D01AC0BA90E740212134412590879
:10577300121082A90AEEFAEFFB1216548A088B095B
:10578300A808A909900373E0687003A3E0696003A4
:1057930002589AEEFAEFFB1258AA7001E9606C887E
:1057A300828983A3A3A3A3E06401600D8882898314
:1057B300A3A3A3A3E0640270527402121344AC8245
:1057C300AD83EEFAEFFB121378805390036CE06025
:1057D30019E50AF50C780C1210737901AC08AD09C0
:1057E300E9121344125901121082E50AF50C780CE0
:1057F300121073125437121082E9600302571274A5
:10580300211213441258CFA302575F12179EEAFCCA
:10581300EBFD7402121344AA82AB831224E88510B1
:10582300828511831258EB701C851082851183E0E9
:105833002415125A6CFCA3E0FD740A121344AA82C5
:10584300AB831224E81258F5E04430F508780812C7
:105853001073740312134485820885830978081230
:10586300106F740D1213448582088583097808121A
:10587300106FE50EF50878081210737900EEFCEF4F
:10588300FD7406121344125A8C125DA11215A074F2
:10589300061210820256611258F5A3A3A3A3E50BC7
:1058A300F01217B6023DCB1213D88A088B09A80849
:1058B300A909E822EEFAEFFB9003561258C222120E
:1058C30058C622E0F8A3E0F5838882221258C274F6
:1058D300FFF022124EA68001F98882898322240BCD
:1058E300125A7DFAA3E0FB22126D70A3A3A3E06416
:1058F3000122125A74F8A3E0F5838882A322125D71
:10590300A512544122125DA512160674022274F1E7
:10591300120A6174EE121114851082851183EAF064
:10592300A3EB126D91241D125A6CF8A3E0F9125ADD
:105933005AFC88828983A3A3A3A3E0FBECF508EBBD
:10594300F50988828983A3A3A3A3A3E0FC888289A2
:1059530083A3A3A3A3A3A3E0FAE4CAFBECFEEBFF98
:1059630088828983A3A3A3A3A3A3A3E0F50A8882C0
:105973008983A3E05478F50BA2E45019125A7024DA
:1059830008FCA3E03400FD740A121344AA82AB831B
:105993001224E87A08E50BA2E5501D125A702AF882
:1059A300A3E03400F9740828FCE439FD74021213EF
:1059B30044AA82AB831224E8AC0AA90EAA08AB0955
:1059C30012160CE9FA74036A7003025A57900373B0
:1059D300E065087004A3E065096064EA705AE50BAA
:1059E300F50C780C1210737901E9121344125A82E0
:1059F300121082E9705E780B121073740312134451
:105A030085820C85830D780C12106F740D1213446C
:105A130085820C85830D780C12106FE50EF50B78DB
:105A23000B121073A90AEEFCEFFDAA08AB091215BD
:105A3300A07406121082801C74046A701780B7E584
:105A43000BF50878081210737901E9121344125AFE
:105A530082121082023DCB88828983A3A3E0F50ED4
:105A630088828983A3A3A3E022125A7D22125A7447
:105A730022851082851183E0241D126D1AE0221203
:105A83005A8C123DE312544122125A9022E0240B05
:105A9300FAA3E03400FB8A828B832274F0120A613A
:105AA30074F21211147402121344E9F0EAFEEBFFCC
:105AB3008C088D09741E121344E0F50F742312131E
:105AC30044E0F50EA90F12161212513C740412137E
:105AD300447408F0E50EA2E450037410F0E50EA23E
:105AE300E55004E02408F07403121344AA82AB8344
:105AF3001218168A0C8B0DEA7001EB7003025C29F5
:105B0300125447E50C241AF582E50D12346612513E
