:020000040000FA
:060000000212540207A2E7
:03001B00020D3D96
:03002B00021213AB
:03003300020E0DAD
:030043000210A9FF
:03004B00020F039E
:030053000206F5AD
:03005B00020F127F
:03006300020F1E6B
:03006B00020DF390
:1000830002073E0101FF0503010F03000300030004
:1000930003000300030003000300030005000A003C
:1000A300140028004F009E00000043184318431813
:1000B30043180517FF164318762400000000D824C0
:1000C300000000000C0000000C0001BA05FF0BEE5D
:1000D3000D5D870001010100850E000000FA0EE8A6
:1000E3000364006400B8010202000800000502076F
:1000F3001E02051E03B80B020103320002F1FF02C8
:10010300020206053031323334353637383941424D
:100113004344454600286E756C6C20706F696E749D
:10012300657229003F3F3F000000807F0000803F51
:10013300F9021550B743BA510000204100E7DB2E06
:100143000000A04010000000080000000A000000AA
:1001530012128260461212A0603DE9687008F61818
:10016300F618F618F622748067F712018709090951
:10017300748067F7221212A0601D12128270051993
:100183001919801A1210EC701F12112BC37003E699
:10019300673319191940071818182208080874FF3B
:1001A300F618F618F618F62212112B60171212DF42
:1001B300702192F01212E97019501720F0140808F8
:1001C30008090909E7F61819E7F61819E7F61819DF
:1001D300E7F6221212E960E6E869701F0808E624D0
:1001E30080F608E436F618547FB47F0CE65480603A
:1001F30007F6E418F618F622181822E9C6CC08C642
:10020300CD08C6CE08C6CFC0E0E8C0E0EAC0E0EB48
:10021300C0E009E9F809E7FA09E7FBE6F918E6F8A7
:10022300C3EC98ED99EE9AEBC2E7F5F0EFC2E795D0
:10023300F0500E600CEBCFFBEACEFAE9CDF9E8CC37
:10024300F8EAA2E7D2E7FAEB33FB13F5F0EEA2E705
:10025300D2E7FEEF33FFC5F013A2E730E601B31395
:10026300C5F0C3C0E0C0F07F00C39BFB605B941884
:10027300600C401AD0E023F9D0E0F80203568AF06C
:10028300E9486003D2F0E4AFF0FAF9F8803BEB30D1
:10029300E40D89F0EA6003D2F0E4AFF0F9CAF8EBB9
:1002A30030E30D88F0EF6002D2F0AFF0E4CAC9F892
:1002B300EB54076014FBC3EA13FAE913F9E813F8E4
:1002C300EF135002D2E0FFDBEDD0E0C0E030E739BE
:1002D300C3E49FFFF5F0EC98FC42F0ED99FD42F08A
:1002E300EE9AFE42F0D0E0F9D0E0F8E5F0607AE96A
:1002F30023F9EE20E742D8028067C3EF33FFEC33E4
:10030300FCED33FDEE33FE80EAEC28FCED39FDEE27
:100313003AFED0E023F9D0E0F84002801BC3EE138D
:10032300FEED13FDEC13FCEF135002D2E0FF08B80F
:1003330000067F7F74FF802EEF3350178CF020F080
:100343000260100CBC000C0DBD00080EBE000408BA
:10035300E860DFE933E813FFEE2313FE4F4D4C80D3
:1003630008E95480FFE4FEFDFCEE33EF33F4700440
:10037300FCFD7E80D0E0FBD0E0FAD0E0F8D0E0CF07
:10038300C618CEC618CDC618CCC6F9221212A07054
:100393000418181822121282700D74FFF61819F639
:1003A3001819F61819F622E7548066F61212E97046
:1003B3000F1212DF70F014F608F608F608F680D173
:1003C3001212DF700CF608F608768008E6447F8088
:1003D300EC12112E700C1210EF60BFE65480F6E49D
:1003E30080BB1210EF700519191980A5E869700C0C
:1003F300763F18768018F618F6E8F922E6CDC0E0C5
:1004030018ECC0E0E633CD33CDD313F6E719FCE7A0
:10041300191933CC33C3947F400ECD9D502408E685
:100423005480F6E418F6800FF4043D14501408E6E3
:10043300447FF6187680E418F618F6D0E0FCD0E096
:10044300FD22CCD313CCFD18E4C6CBC0E018E4C620
:10045300CAC0E00808ED08C633E613F618E433C64D
:1004630075F003C3CA97CA09CB97CB199C40047D87
:1004730008802EBD000302053816B6FF05060608E0
:100483001618C3CA33CACB33CB33CA27CA09CB37EF
:10049300CB193CC37D08803E187D0820E75CC6333A
:1004A300C6CA33CACB33CB33DDF1D5F0EB30E77BB0
:1004B300CA97CA09CB974ACB199C406F4B7025E664
:1004C30020E0218066187D08C3CA97CA09CB97CB61
:1004D300199CD3C633C6CA33CACB33CB3350C9DD19
:1004E300E7D5F0E1D3E4C636C608C636C608C63635
:1004F300C608C636C61818188031C3CA97CA09CBAE
:1005030097CB199CB34097C633C6CA33CACB33CBF8
:1005130033DD34D5F02EC6A2E0C640C8CA27CA09C7
:10052300CB37194A70BECB3CB480B90808E6330810
:10053300E633601F181818D0E0FAD0E0FBD0E0FCD7
:10054300D0E0FD22187D08CA27CA09CB37CB193C56
:10055300D3808013F618E4B67F11F618B6FF0EF6B3
:1005630018C60470D20808768080CAF618F618F602
:1005730080C5001212A0604F1212826012E75480ED
:1005830066F61210EC70111212DF703B090909F4C0
:10059300F618F618F618F62212112B70151212E936
:1005A30008080860EAE6447FF618768018E4F6182F
:1005B300F6221212E960161212DF7012E4F608F640
:1005C30008F608E65480F609090918181822EAC043
:1005D300E0EBC0E0ECC0E0EDC0E0E687F0A4FBACEC
:1005E300F008E687F0A42CFCE435F0FA1809E68756
:1005F300F0A42C4B60027401CA35F0FCE433FB0910
:10060300E687F0D2F7A42CCB35F0FC1908E687F087
:10061300A42BCC35F0FBE433FD0819E687F0D2E7D1
:10062300A42C4ACB35F0CD3400FC09E687F0D2E7A1
:10063300A42DCC35F0FDE433FA0918E687F0D2F7A0
:10064300A42CCD35F0CA3400FC08E687F0D2E7D2FB
:10065300F7A42ACC35F07A7E20E70B0ACB33CBCD37
:1006630033CDCC33CC33CB3350147004ED30E00EA8
:10067300D2F1E4CD3DCDCC3CCC3B5005DA05C2F103
:10068300EB547FC63308E63392F0FBE73309E733D5
:10069300C39A502D2B70190C0D4C4D70151806E68E
:1006A30008C333700D20F10AA2F013F6E418800B8F
:1006B3004024E4F630F002768018F618F618F68037
:1006C30024D33B14501074FFA2F013F6187680E481
:1006D30018F618F6800FA2F013F618E63303F6188F
:1006E300ECF618EDF6D0E0FDD0E0FCD0E0FBD0E076
:1006F300FA22C0E074F2120ABBE5A7F8E5A1F958A3
:1007030054106008121EB553A1EF802AE8A2E0C07E
:10071300D0E9A2E092F01211A1158182F050179056
:100723006198E0F890128FE0C398A2D265D033505D
:1007330002E8F053A1FE7F01020B72C0E074F212D3
:100743000ABB9061A4E0F8759B00E59158540860DA
:10075300087591F7121EF7802AE591585410600826
:100763007591EF121EFD801BE8A2E0C0D0E591A2B7
:10077300E092F01211A1158182F05007E0C2E0F07F
:1007830012201D9061A3E0F8E5E9585404600E12AD
:100793001FF375E9FB906193E0A2E640F28097C0F6
:1007A300E074F2120ABB9061A5E0F8E5BF58540467
:1007B300600653BFFB122035020739C3E498F8E4FF
:1007C30099F91207FF8026C3E49AFAE49BFBE92018
:1007D300E7E91207FFE498F8E499F922C3E498F8EB
:1007E300E499F91207FFE498F8E499F9C3E49AFA53
:1007F300E49BFB22EB20E7CFE920E7E0B90010BB45
:100803000008E88AF084F8AAF022E4FBC8FA22EB95
:1008130070227B10C833C8C933C9335007C39AC386
:10082300DBF280069A50012ADBEAC833F4C8C933E5
:10083300F4C9FA2275F008E4C833C8C933C933C907
:100843009AC99B5004C92AC93BD5F0ECFBC833F4C1
:10085300C8E4C9FA2212089820F01430E72B74FF79
:10086300FCFBFA747F8022E4FCFBFA7480801AB4E8
:100873008008BC00F2BB00EF800F50EBF9E4C39A91
:10088300FAE49BFBE49CFCE499C6CC18C6CB18C6DF
:10089300CA18C6F922E4C9C608CAC608CBC6D333E8
:1008A3000308CCC63392F0C3947F402E94184019AA
:1008B300C9B90704CACBCC225025C309CA33CACB52
:1008C30033CBCC33CC33D9F422F4600DC9CCC3136E
:1008D300CB13CBCA13CAD9F6CC22E4FCFBFA2214FD
:1008E300FCFBFA22080808EAC0E0EBC0E086F0E768
:1008F300A4FA180986F0E7A42AFA180986F0E7A4EF
:100903002AFA180986F0E7A42AFA1986F0E7A4FB65
:10091300E5F02AFA190886F0E7A42BFBE5F03AFA8A
:10092300190886F0E7A42BFBE5F03AFA18180986B4
:10093300F0E7A4C5F02BFBE43AFA1908E7C5F0C6C3
:10094300A426F6E5F03BFBE43AFA1886F0E7A4F6B2
:10095300E5F00826F6E43B08F6E43A08F6D0E0FBB7
:10096300D0E0FA22080808E630E711121154120900
:100973007F080808C64480C618181822181818E9F2
:10098300799EC608CAC608CBC608CCC6C3702079F0
:1009930096CACBCC7019798ECBCC70137986CC7078
:1009A3000EF9802ACA33CACB33CBCC33CC331930BC
:1009B300E7F2CCCBCA3350147004EA30E00DE4CA3A
:1009C3003ACACB3BCBCC3CCC500209C3E913C6CCCF
:1009D300182313C6CB18C6CA18C6F922E4CFC0E041
:1009E300E4CEC0E0E4CDC0E0E4CCC0E075F020C3C9
:1009F300E633F608E633F608E633F608E633F61888
:100A03001818EC33FCED33FDEE33FEEF33FFC3EC8C
:100A13009709ED9709EE9709EF97191919400FFFF9
:100A2300EC97FC09ED97FD09EE97FE191906D5F031
:100A3300BEECF709EDF709EEF709EFF7191919D02D
:100A4300E0FCD0E0FDD0E0FED0E0FF222510C5821F
:100A5300C0E0E51134FFC583C0E0E510C3958224EF
:100A6300F810AF088583118582108008858311856E
:100A73008210D2AFCEF0A3E520F0A37808E608F009
:100A8300A3DEFAEFF0A3E58124FAF8E608F0A3E683
:100A930008F0A3E608F0A30808E608F0A3E608F0C8
:100AA300A315811581D0E0FED0E0F81581158115DD
:100AB30081E8C0E0EEC0E022C0D02510C582C0E0CE
:100AC300E51134FFC583C0E0E510C3958224F3101C
:100AD300AF08858311858210800885831185821074
:100AE300D2AFC8F0A3E9F0A3EAF0A3EBF0A379082F
:100AF300E709F0A3D8FAECF0A3EDF0A3EEF0A3EF2F
:100B0300F0A3D0E0F0A3D0E0F0A3D0E0F0A3E52081
:100B1300F0A3E5F0F0A3221212D4B90003020B5C98
:100B2300E490040078E579118002F0A3D8FCD9FAA7
:100B33009014E4AA82AB8390008678CE7901801565
:100B4300E493A3AC82AD838A828B83F0A3AA82ABA6
:100B5300838C828D83D8E9D9E77582D07583F67447
:100B630002120FF07582237583237400120FF08530
:100B73001183851082E0C0E0A3E0F9A3E0FAA3E0CB
:100B8300FBA37808E0F608A3DFFAE0FCA3E0FDA3EB
:100B9300E0FEA3E0FFA3E0C0E0A3E0C0E0A3E0F534
:100BA300D0A3E0F520A3E0A3F5F010AF08858311EF
:100BB3008582108008858311858210D2AFD082D0C0
:100BC30083D0E0F8D0E0321212A0601C12128260CF
:100BD300171212E970071212DF7001D322C0D0126C
:100BE30012DF7006D0D0B322C32233D0D0501430DA
:100BF300E0F6C3E7960809E7960809E7960809E7C8
:100C030096B32220E0D5E6970809E6970809E69708
:100C13000809E697B322D083D082ECC0E0EDC0E0B0
:100C2300E493A3FCE493A3FDED4C600D120D7EEC65
:100C330024FFFCED34FFFD80EFE493A3FCE493A3D6
:100C4300FDED4C600D120EAEEC24FFFCED34FFFD08
:100C530080EFD0E0FDD0E0FCE493A3C0E0E493C0D8
:100C6300E0221212A0601B12128260161212E970A7
:100C7300071212DF600CB322C0D01212DF7005D04E
:100C8300D022C32233D0D0501330E0EBC3E7960811
:100C930009E7960809E7960809E7962220E0E4E6C3
:100CA300970809E6970809E6970809E69722851148
:100CB30083851082E0A3FEE0A3F5207808E0A3F685
:100CC30008DFFAE0A3FFE0A3C0E0E0A3C0E0E0A3F5
:100CD300C0E0E0A3C0E0E0A3C0E010AF088582104D
:100CE3008583118008858210858311D2AFD083D08C
:100CF30082020FF6D083D082E9C0E0E493A3C386D7
:100D0300F0C5F095F0F908E493A386F0C5F095F0EB
:100D1300700BE493A3C3994005E9048002A3E4752F
:100D2300F002A42582F582E5F03583F583D0E0F95E
:100D3300E493A3C0E0E493C0E022C0E074F2120A9B
:100D4300BBE5F9FC900FFEE02401F8E43400F97AE6
:100D5300807B001207F7C28F900FFFE06A60179045
:100D63000FFEE0F8747E28F582740F3400F583ECEF
:100D7300F0EA900FFEF07F01020B72C0E0C3E49330
:100D830096087401939618400FE4936670080874EC
:100D93000193661870007019A3A3C3E493960874B3
:100DA30001939618A3A3400DD0E0D0E0D0E0020C4D
:100DB30055A3A3A3A3A3A3D0E022D083D082C5F0DD
:100DC300E493A3C5F0C395F0F5F0E493A3C395F0C2
:100DD3004005E5F0048001E475F002A42582F58264
:100DE300E5F03583F583E493A3C0E0E493C0E02208
:100DF300C0E074F2120ABBE589A2E15003121D7729
:100E0300758900C2C57F01020B72C0E074F2120A39
:100E1300BBE58BA2E05003121D77758B00C2E880FF
:100E2300E47404800474028000CCC0E0EDC0E0E50B
:100E330010C39CCCAD1150011D10AF068C108D1149
:100E430080068C108D11D2AF120F72D0E0FDD0E06E
:100E5300FC2274028000CCC0E0EDC0E0E510C39C2E
:100E6300CCAD1150011D10AF068C108D1180068C76
:100E7300108D11D2AF120F50D0E0FDD0E0FC221242
:100E830012A0602512128260201212E9700302126E
:100E9300DF080808E76670101819E766700A181962
:100EA300E76670041819E76622F422C0E0C0F088F0
:100EB300F0E4936670080874019366187000A8F054
:100EC300A3A3700BD0F0D0E0D0E0D0E0020C55A388
:100ED300A3D0F0D0E022D083D082CCC0E0E493A3AF
:100EE3006006120FB21470FAE493A360061210D6D0
:100EF3001470FAD0E0FCE493A3C0E0E493C0E022D2
:100F0300C0E074F2120ABB121DFB7F01020B72C018
:100F1300E074F2120ABB121E0180EFC0E074F212F9
:100F23000ABB121E0780E3C008C3E096F50808A3B6
:100F3300E096420808A3E096420808A3E096420818
:100F4300A2D265D033E5087001D3D00822CAC0E02D
:100F5300E493A3C582CCC582C583CDC583F0A3C565
:100F630082CCC582C583CDC583DAE5D0E0CA22CA67
:100F7300C0E0E0A3C582CCC582C583CDC583F0A301
:100F8300C582CCC582C583CDC583DAE6D0E0CA224B
:100F93007009080808226016181818C6C333C60853
:100FA300C633C608C633C608C633C6D5E0EA22C070
:100FB300E0E493A3D39C5010E493A3C39C400AD0D2
:100FC300E0D0E0D0E0020EF6A3A3A3D0E022C00855
:100FD300C3E096F50808A3E096420808A3E096420A
:100FE3000808A3E09645087001D3D00822C09FF5F6
:100FF3009FE473D09F22D083D082C09FE493C0E04C
:10100300740193C0E0740293F59F222510F58210BA
:10101300AF08F510400215118008F51040021511B4
:10102300D2AF851183227404800A7403800674028C
:1010330080027401C0E0F40412100ED0E01212AF6B
:1010430022BB0102E722C082C08389828A83BB005C
:1010530003E08002E493D083D08222C0D025101015
:10106300AF08F510500205118008F5105002051164
:10107300D2AFD0D0226016080808C6C313C618C65C
:1010830013C618C613C618C613C6D5E0EA22C3E0B2
:10109300C696F608A3E0C696F608A3E0C696F60839
:1010A300A3E0C696F622C0E074F2120ABBC2C0E502
:1010B300D1A2E45003121E317F01020B72251010DE
:1010C300AF08F510400215118008F5104002151104
:1010D300D2AF22C0E0E493A36C7009D0E0D0E0D09B
:1010E300E0020EF6A3A3D0E022181818E60846087B
:1010F300700AE608C3337005E633F4220822E0667B
:10110300701008A3E066700A08A3E066700408A3E1
:10111300E06622C3E09608A3E09608A3E09608A33E
:10112300E096A2D265D03322191919E7094709704D
:101133000AE709C3337005E733F4220922C3E096B3
:10114300F008A3E096F008A3E096F008A3E096F079
:1011530022181818E4C396F608E496F608E496F6FF
:1011630008E496F622E026F608A3E036F608A3E0A4
:1011730036F608A3E036F622E026F008A3E036F0C0
:1011830008A3E036F008A3E036F022E627F60809C4
:10119300E637F60809E637F60809E637F622C0E02F
:1011A300E8C0E0E58124FCF8E6A2E7D0E0F8D0E06F
:1011B30022E657F60809E657F60809E657F608093E
:1011C300E657F622E056F608A3E056F608A3E056E3
:1011D300F608A3E056F622E056F008A3E056F0081E
:1011E300A3E056F008A3E056F022700422600D1825
:1011F300C6C333C608C633C6D5E0F41822E647F69D
:101203000809E647F60809E647F60809E647F6221D
:10121300C0E074F2120ABBC2C7121F397F01020B6E
:1012230072C6F4C608C6F4C608C6F4C608C6F4C631
:1012330022C3E7960809E7960809E7960809E7969F
:1012430022C3E09608A3E09608A3E09608A3E096DD
:101253002275D00075814075100075110400020BD2
:101263001A600C08C6C313C618C613C6D5E0F42209
:10127300E6F008A3E6F008A3E6F008A3E6F022E709
:10128300094709C3134709336002E733F422E0F641
:1012930008A3E0F608A3E0F608A3E0F622E6084672
:1012A30008C3134608336002E633F422CAC0E0E6FB
:1012B300F0A308DAFAD0E0FA22E0FAA3E0FBA3E015
:1012C300FCA3E0FD22EAF0A3EBF0A3ECF0A3EDF026
:1012D30022E5C754F84401F5C7790122E7C333195E
:1012E300471947194722E6C33318461846184622BA
:1012F3002510F582E43511F58322120FF955830287
:10130300120FF90F8402120FF9948402120FF91BC2
:101313008502120FF9038602120FF95C8602120F7F
:10132300F9D48602120FF9E68602120FF9F086024B
:10133300120FF9CD8702120FF92C8802120FF92E22
:101343008902120FF9A78902120FF9FB8902120F02
:10135300F9708A02120FF91C8C02120FF9308C02F9
:10136300120FF9928C02120FF9178D02120FF96402
:101373008D02120FF98C8E02120FF9778F02120F62
:10138300F9E48F02120FF9609002120FF9C2900272
:10139300120FF9FA9002120FF9D59102120FF9D533
:1013A3009202120FF9329302120FF97B9302120F7A
:1013B300F9A39302120FF92C9402120FF9C29402AB
:1013C300120FF9289502120FF9399502120FF9B28B
:1013D3009502120FF93F9602120FF9819602120F2E
:1013E300F9119702120FF9469702120FF987970224
:1013F300120FF9209902120FF9BF9A02120FF9FB8B
:101403009A02120FF91C9C02120FF9EB9D02120FA4
:10141300F9F59D02120FF9FF9D02120FF9099E02C1
:10142300120FF9139E02120FF91D9E02120FF927D4
:101433009E02120FF9759E02120FF9999E02120F66
:10144300F9BD9E02120FF9169F02120FF95B9F025C
:10145300120FF9799F02120FF9F09F02120FF93A56
:10146300A002120FF970A002120FF905A202120FC7
:10147300F9CA2600120FF9162700120FF9E2280005
:10148300120FF9202900120FF9C22900120FF9F6E1
:101493002900120FF91B2A00120FF9782B00120FE3
:1014A300F9782C00120FF94A2F00120FF93B300084
:1014B300120FF9E53000120FF9003200120FF9395B
:1014C3003500120FF9C53500120FF9FA3500120F66
:1014D300F9D23600120FF9A83700120FF94B380072
:1014E300120FF9A63800120FF9D33800120FF9F5CD
:1014F3003800120FF93B3B00120FF9ED3B00120FBE
:10150300F9443C00120FF9B13C00120FF9723D008F
:10151300120FF9A73D00120FF9FB3D00120FF9302E
:101523003E00120FF97E3E00120FF9D53E00120F56
:10153300F9603F00120FF9E94000120FF9A64100CC
:10154300120FF9D54200120FF9444500120FF9ECBE
:101553004500120FF90F4800120FF9AC4800120FA3
:10156300F9F34800120FF9BA4A00120FF9CE4A00F4
:10157300120FF9DB4A00120FF9054B00120FF91194
:101583004B00120FF92F4B00120FF9F94B00120FFA
:10159300F9234C00120FF9304C00120FF9884C005C
:1015A300120FF90E4D00120FF9F54D00120FF9E766
:1015B3004E00120FF9974F00120FF9355000120F1A
:1015C300F94C5000120FF9855000120FF9A3500087
:1015D300120FF9E75000120FF90E5100120FF90A1A
:1015E3005200120FF9855200120FF9A85300120F7F
:1015F300F9BA5400120FF9AB5500120FF912560045
:10160300120FF9EC5600120FF9205700120FF9963A
:101613005700120FF9BB5700120FF9E15700120FD1
:10162300F9175800120FF91B5A00120FF90D5B003E
:10163300120FF9D25B00120FF9525D00120FF99BE2
:101643005D00120FF9C75D00120FF94E5E00120F15
:10165300F9B65E00120FF9085F00120FF94F5F0031
:10166300120FF97B5F00120FF9B05F00120FF9D769
:101673005F00120FF9356000120FF9126100120FAB
:10168300F97A6100120FF9A36100120FF9136200D6
:10169300120FF9886200120FF9DA6200120FF9FFD4
:1016A3006200120FF9456300120FF9626300120F13
:1016B300F9FF6300120FF9A39B03120FF9EE9B03CB
:1016C300120FF96EB801120FF9B9B801120FF9141C
:1016D300B901120FF965B901120FF980B901120F9F
:1016E300F9B6B901120FF9D7B901120FF9E1B9012E
:1016F300120FF9F6BA01120FF914BB01120FF98494
:10170300BB01120FF997BB01120FF9A5BB01120F11
:10171300F946BC01120FF91ABD01120FF935BE01CA
:10172300120FF9B1BE01120FF9BBBE01120FF92E50
:10173300BF01120FF945BF01120FF987BF01120F45
:10174300F9C5BF01120FF9F4BF01120FF92BC00144
:10175300120FF949C001120FF96DC001120FF9AE52
:10176300C001120FF999C101120FF9DFC101120F64
:10177300F90AC201120FF977C201120FF99EC201D1
:10178300120FF9E3C201120FF9F1C201120FF94A64
:10179300C301120FF987C301120FF9CEC301120F50
:1017A300F9FFC301120FF922C401120FF92DC4016D
:1017B300120FF94BC401120FF907C501120FF911EA
:1017C300C501120FF950C501120FF966C501120FB9
:1017D300F96FC501120FF9B3C501120FF9C7C5019E
:1017E300120FF9B2C601120FF9C5C601120FF9DAC9
:1017F300C601120FF982C701120FF9CEC701120FEA
:10180300F984C801120FF98FC801120FF9DDC9015C
:10181300120FF909CA01120FF94ACA01120FF9642A
:10182300CA01120FF99BCA01120FF9FECC01120F64
:10183300F986CD01120FF906CE01120FF949D00135
:10184300120FF959D001120FF95CD001120FF96888
:10185300D001120FF97CD001120FF99BD001120FA6
:10186300F9CED001120FF993D101120FF9FAD10178
:10187300120FF95ED201120FF9E8D201120FF99992
:10188300D301120FF9C0D301120FF950D401120F73
:10189300F95CD401120FF98BD401120FF9ADD40105
:1018A300120FF9D4D401120FF939D501120FF9EC43
:1018B300D601120FF9EFD601120FF959D701120F02
:1018C300F94CD801120FF931D901120FF9BCD90122
:1018D300120FF9FFDA01120FF9C2DB01120FF9FB44
:1018E300DB01120FF92CDC01120FF935DC01120FA9
:1018F300F919DD01120FF9A9DD01120FF947DE0114
:10190300120FF907DF01120FF980DF01120FF9AF90
:10191300DF01120FF9ECDF01120FF9367500120F18
:10192300F9447500120FF9BA7500120FF9F2750038
:10193300120FF93A7600120FF9417800120FF923CA
:101943007A00120FF9E27C00120FF90E7D00120FDC
:10195300F92E7D00120FF9917D00120FF9CF7D0052
:10196300120FF9FB7D00120FF9357E00120FF97586
:101973009003120FF9C39003120FF9BAC302120FA7
:10198300F9C4C302120FF908C402120FF9AFC4025B
:10199300120FF9D2C402120FF972C502120FF93AEB
:1019A300C802120FF948C802120FF99BC802120F9E
:1019B300F9C1C802120FF919C902120FF989C90234
:1019C300120FF9DCC902120FF945CA02120FF9C34B
:1019D300CA02120FF923CB02120FF962CB02120FC4
:1019E300F974CB02120FF986CB02120FF9A5CB02C1
:1019F300120FF947CC02120FF981CC02120FF9032F
:101A03009703120FF9108D03120FF96F8D03120F45
:101A1300F9988D03120FF98E8E03120FF9396400B2
:101A2300120FF9186500120FF9546500120FF9FD32
:101A33006600120FF9F5B601120FF9EA6800120FEA
:101A4300F92E6900120FF9F66900120FF9836A0083
:101A5300120FF9146B00120FF96A6B00120FF9AA37
:101A63006B00120FF9506D00120FF9F56E00120F93
:101A7300F9437100120FF9517100120FF9B9710096
:101A8300120FF9F57400120FF9019D03120FF9AE4D
:101A9300FF02120FF9008003120FF9138003120FD4
:101AA300F9A08003120FF9DB8003120FF9058302FB
:101AB300120FF91B8103120FF94F8103120FF980E3
:101AC3008103120FF99F8203120FF9538B03120F35
:101AD300F9C08B03120FF9DC8B03120FF91E8C0371
:101AE300120FF9478C03120FF9DF8C03120FF9F869
:101AF3008C03120FF98FBA02120FF959BB02120F9E
:101B0300F994BD02120FF9BABE02120FF92FBF02E8
:101B1300120FF947BF02120FF9ABC002120FF9C03F
:101B2300C102120FF961C202120FF967AF02120F5D
:101B3300F9B2AF02120FF958B002120FF9DEB00278
:101B4300120FF92FB102120FF943B102120FF92A42
:101B5300B302120FF9A7B302120FF9D1B302120F96
:101B6300F95CB502120FF979B502120FF9BAB50291
:101B7300120FF9EFB502120FF948B602120FF9630B
:101B8300B602120FF9D8B602120FF96AB802120F91
:101B9300F992B802120FF9BBB802120FF91BB9027E
:101BA300120FF938B902120FF93BB902120FF93EBD
:101BB300B902120FF9A9B902120FF9D8B902120F1B
:101BC300F9EBB902120FF951BA02120FF98CBA02EA
:101BD300120FF9BA9A03120FF9C69A03120FF900FA
:101BE3009B03120FF9FAD402120FF949D502120F0F
:101BF300F9EBD602120FF997D802120FF9DFD802C8
:101C0300120FF916DA02120FF9A3DB02120FF9C54C
:101C1300DB02120FF917DC02120FF999DC02120F23
:101C2300F97CF001120FF9A7F001120FF994F101F9
:101C3300120FF9E8F101120FF944F201120FF990B2
:101C4300F201120FF903F301120FF987F301120FD7
:101C5300F9FDF301120FF93FF401120FF969F801CD
:101C6300120FF90AFA01120FF9EAFB01120FF91622
:101C7300FC01120FF929FD01120FF9BCFE01120F2D
:101C8300F909A302120FF9C1A302120FF94AA40220
:101C9300120FF91DA502120FF97AA502120FF98886
:101CA300A602120FF939A702120FF989A702120F20
:101CB300F948A902120FF9F8A902120FF954AB025D
:101CC300120FF9AFAC02120FF949AD02120FF9115D
:101CD300AE02120FF91E9D03120FF9279D03120F77
:101CE300F98A8703120FF9F48703120FF9AD8803FA
:101CF300120FF9138903120FF987F702120FF9E094
:101D0300F702120FF96FF902120FF9319A03120F4A
:101D1300F97B9A03120FF9C78E03120FF9D58E03BD
:101D2300120FF92C9D03120FF9989903120FF9A8BA
:101D33009903120FF9C69903120FF9279A03120F89
:101D4300F9D39403120FF9FA9403120FF97F950351
:101D5300120FF9D89503120FF9DD9D03120FF9F154
:101D63009503120FF9139603120FF97D9603120FC1
:101D7300F9889603120FF9CC9603120FF948E7027C
:101D8300120FF956E702120FF997E702120FF9B192
:101D9300E702120FF902E802120FF903E902120F28
:101DA300F928E902120FF945E902120FF962E90273
:101DB300120FF987E902120FF9C0E902120FF9FEB7
:101DC300E902120FF975EA02120FF911EB02120F71
:101DD300F9C6EB02120FF9D4EB02120FF94EEC0223
:101DE300120FF90AED02120FF995EF02120FF980A3
:101DF3007E00120FF9B97E00120FF9D67E00120F82
:101E0300F9347F00120FF9997F00120FF921E202D2
:101E1300120FF98EE202120FF948E302120FF9B51D
:101E2300E302120FF9DBE402120FF94EE602120F7E
:101E3300F9B2E602120FF9FEE602120FF907E70202
:101E4300120FF916E702120FF929E702120FF93FF1
:101E5300E702120FF9CDDC02120FF920DD02120F97
:101E6300F994DF02120FF9C6DF02120FF9E8DF025D
:101E7300120FF901E002120FF91AE002120FF94CE6
:101E8300E102120FF9E2E102120FF9848903120F42
:101E9300F9B68903120FF9C28903120FF9F5890301
:101EA300120FF91E8A03120FF94C8A03120FF9C994
:101EB3008A03120FF9F88A03120FF9B68203120F7D
:101EC300F9DC8203120FF9198303120FF92B830331
:101ED300120FF9478303120FF9B58303120FF9BEEB
:101EE3008303120FF91D8403120FF9418403120FA8
:101EF300F9008503120FF90D8503120FF91E8503EF
:101F0300120FF9379B03120FF9849B03120FF97A0F
:101F1300F302120FF9A2F402120FF9AFF402120F37
:101F2300F9CEF402120FF9E4F402120FF9F8F402F5
:101F3300120FF972F502120FF9F0F502120FF96997
:101F4300F602120FF9B1F602120FF9C1F602120FDF
:101F5300F9FF9803120FF9239903120FF94B990311
:101F6300120FF9739903120FF94C8503120FF965D8
:101F73008503120FF9718503120FF9858503120F7B
:101F8300F9A38503120FF9AD8503120FF9B7850382
:101F9300120FF9CA8503120FF9FE8503120FF937E1
:101FA3008603120FF9688603120FF9B68603120F20
:101FB300F9038703120FF91E8703120FF92887030A
:101FC300120FF9398703120FF97F8703120FF9F8FC
:101FD3009B03120FF9A7CC02120FF9D3CC02120FF5
:101FE300F9EFCC02120FF902CD02120FF918CD024C
:101FF300120FF988CD02120FF9BBCD02120FF9159A
:10200300D102120FF94BD202120FF97ED202120F34
:10201300F9E3D202120FF9D2D302120FF9FAD30263
:10202300120FF90FD402120FF91FD402120FF96322
:10203300D402120FF9B8D402120FF9CED402120F40
:10204300F9A09303120FF9BB9303120FF9E493035F
:10205300120FF9FE9303120FF9239403120FF9429F
:102063009403120FF95A9403120FF9889403120F71
:10207300F9A29403120FF9409C03120FF9FAEF022D
:10208300120FF901F002120FF90DF102120FF93DCF
:10209300F102120FF963F102120FF996F102120F16
:1020A300F9A8F102120FF9E2F102120FF948F20254
:1020B300120FF981F202120FF9CDF202120FF9FA9F
:1020C300F202120FF91AF302120FF91B9203120F05
:1020D300F9339203120FF9139303120FF9019803C3
:1020E300120FF9589803120FF9959803120FF9D6A6
:1020F3009803120FF9F6FC02120FF912FD02120FE8
:10210300F95DFD02120FF979FD02120FF9AAFD0222
:10211300120FF9D1FD02120FF9B4FE02120FF9BE2C
:10212300FE02120FF9CBFE02120FF982FF02120F09
:10213300F996FF02120FF99FFF02120FF910FA022C
:10214300120FF9F1FC02120FF9B69C03120FF94EAC
:10215300FF01120FF978FF01120FF9809C03120F90
:10216300F9D87F00120FF9E39C03120FF92DE00158
:10217300120FF94BE501120FF9F5B501120FF95AD8
:10218300B501120FF91DB401120FF9DEB101120FDF
:10219300F955B101120FF90FB101120FF95EB00138
:1021A300120FF951B001120FF92FAD01120FF9C53A
:1021B3008202120FF98A8202120FF9CCAA01120FBE
:1021C300F965A901120FF9638202120FF94882021D
:1021D300120FF9B4A801120FF9E4A601120FF93393
:1021E300A501120FF9C4A401120FF968A401120F7B
:1021F300F90BA401120FF9E1A301120FF9D9A101FF
:10220300120FF9A5A101120FF963A101120FF938F9
:10221300A101120FF97AA001120FF92DA001120FDB
:10222300F9A39E01120FF9A09E01120FF9A69D01B9
:10223300120FF9729D01120FF9AD9C01120FF9E013
:102243009A01120FF9939A01120FF9649A01120F6E
:10225300F9C58102120FF9278102120FF9A2800238
:10226300120FF9408002120FF9128002120FF96166
:102273009A01120FF9549A01120FF9179A01120FCA
:10228300F9008002120FF9099A01120FF9B59801AA
:10229300120FF9399801120FF9069801120FF9F686
:1022A3008003120FF913B701120FF9AA9701120F46
:1022B300F97D9701120FF9849401120FF9869301A6
:1022C300120FF90D9301120FF9D89201120FF9A110
:1022D3009201120FF9959201120FF9F59101120F64
:1022E300F9319101120FF9F78E01120FF91C8C01CC
:1022F300120FF9DD8B01120FF97C8A01120FF928F5
:102303008A01120FF96F8901120FF9748801120FF4
:10231300F9D58801120FF9AE8801120FF93F670052
:1023230000000080FBE47300013636010100010266
:102333000100010301000104010606050200000774
:102343000100340801000F090401010D0100FF0E13
:1023530008000017020000190100FF1A0100011B09
:102363000100051C0100081D0200001F01000120DF
:10237300010001210200002301000F2402000026B6
:1023830001000127010308280200FF2A0100072B8F
:102393000102402C0100002D0100012E0100012F3C
:1023A3000100FF30010B1C310800003A0100080155
:1023B300017101010101011101010131010101015A
:1023C300018001100161013B00140063017301727C
:1023D30001620143010001130106013D01350004BF
:1023E3000112010001000100010001040104013395
:1023F3000133013C01440132013600000100016553
:102403000100013500810100010501820183010002
:102413000103027102300160021102700201020223
:102423000202028002100261023A00410063027359
:102433000272026202430200021302380000020029
:10244300020402120200020002000200020402045B
:1024530002370037003C0244020002390000020048
:102463000265020002350281020002050282028334
:10247300020002030071003001600011007000319E
:102483000220035004800010006100000014006368
:102493000073007200620043000000130006000096
:1024A300000000040012000000000000000000040F
:1024B300000400370037003C024400000000000025
:1024C30000000065000000350081000000050000E9
:1024D30000830000000103710301030103010301F1
:1024E300030103220302030103100300030003009B
:1024F3000300030003000300034203000324030655
:10250300030003000304031203250323032503230A
:102513000304030403000300030003440300030054
:10252300032303000365032100350381030003052F
:102533000300030003000336000100060000000F40
:102543000000000000000000000000000003FFFF87
:1025530000000403FFFF0000FFFF0FF4010005C4A8
:10256300040320000100000B000000000000000035
:102573000301030003000400080010001F003E00D5
:102583007B00F600EC01D703AF075D0FB91E713D69
:1025930000000100991C0200391C03003F1C0400C9
:1025A300451C05004B1C0600571CFFFF00005F176E
:1025B3008F1765176B1789177D17771795179B1754
:1025C300A117AD17711759175317D5C5C5B5A5A5CC
:1025D30095858575756565555545453535252515A8
:1025E300050ADD1402A71405B91407AD140C9514DC
:1025F3000DA114FF00009C36063A703DD9404344B8
:10260300AD47174B814EEA5100160F00000B150B17
:10261300020002220F32000006567777777777772A
:102623007777777777777777770001020304050663
:102633000708090A0B0C0D0E0F431855185B1829D0
:1026430017611823172F17BB18D918DF18C118CD16
:1026530018C71800034948424D1817250502000101
:1026630019161816161523030030301718192130C0
:102673001B1D1F300C0E020B040B0A0708000F3042
:102683003016181920231A1C1E3000383C3E363BE6
:102693003B352B432C8317A717D318B317B917AFA1
:1026A3001867186D18791873180005150D091008A7
:1026B3000400000000000000BE040A0E0004001520
:1026C300000405080F040CC082C083E99004BBF02A
:1026D300E4900470F01220CB9004CEE4F0A3F090C9
:1026E30004BCF0A3F012163F1220D1900440E4F092
:1026F300A3F09004DEE07002A3E060099004DE1210
:102703004C731223289026C7E493FA790212212BE3
:102713000248EC74F2120A4FEAFEEBFF74805FF991
:10272300E47001E9706CEEA2E040030227B290046A
:1027330075E0640F700B790012147DE960031228B1
:10274300D874016EFAEFFB0228BD0CEC75F003A4FC
:10275300A9F024E4F582E93425F583E49364FF606A
:102763002AE493FA8508828B83E06A70DDAA08EC79
:1027730075F003A424E5F582E93425F583E493C0D9
:10278300E0740193F583D082122328AA08AB0912BF
:1027930019AB9004BBE0F91219B78A088B09EA70E8
:1027A30001EB60047C0080A3EEFA74806F80975481
:1027B300207003022889750A007C027D007A2012AA
:1027C30028CD7C0079047A007B001215138A088BCC
:1027D3000980187401850882850983A3A3A3A3A391
:1027E300A3A3A3A3F0850C08850D09E5087002E5F2
:1027F30009606E7C007904AA08AB091215138A0CD0
:102803008B0D750A01E5082404125D2324FFF0A350
:10281300E034FF123B347002A3E070C9850882855F
:102823000983A3A3A3A3A3A3A3A3A3A3E064017006
:10283300A2850882850983A3A3A3A3A3A3E05404C9
:1028430070917406850882850983A3A3A3A3A3A318
:10285300A3A3A3F07AB78508828509831229B780D9
:10286300841214E37C0079017A007B00121513EAC9
:102873007001EB7009E50A70057A20124BEE7420A3
:102883006EFAEF02274974025FF9E47001E9600A06
:10289300121609EEFA74020227AF74045FF9E470AA
:1028A30001E96012124D9B124A6D7901123031EE2B
:1028B300FA74046F80CD7A007B00800312105E7F70
:1028C30006020CB1EAFCEBFD7A017B009004BBE04D
:1028D300F912229F2290154012501612148F22C013
:1028E30082C08374EA1210C0851082851183AA8284
:1028F300AB83794B12210174081212F37402F07442
:10290300091212F3AA82AB837950122101741312B4
:1029130012F31251F712211F74160248E974F412CC
:102923000A4FEAFEEBFF7508018E828F83A3A3A3F0
:10293300A3A3A3E05440600D8E828F831240E0FA7C
:10294300A3E0FB800312157374FE6A700374FF6BBC
:1029530060308E828F83124C73124C401215CDE976
:102963008E828F8360061229A5E480051229A5743F
:10297300011237A1FAA3E0FB122125E9F50970053D
:1029830080127509CDAA098E828F831229B7E96057
:1029930003750800A908EEFAEFFB1214EFA9090268
:1029A30035F5E0240DF8A3E01229AF223400F988AD
:1029B30082898322E0240C125026F912148922748E
:1029C300F6120A4FE9FEEAFF7A0F7B001219A5EA15
:1029D3007001EB6019740C8A828B83F0EEA3A3F071
:1029E300EF8A828B83A3F0124CDB7900800279108B
:1029F300024C4BC082C083900475E0640F7016EAEA
:102A03007001EB6010900470E064086005E06404FA
:102A130070031228C70248EC74F4120A4F74FD12B3
:102A230010C0EAFEEBFF8E828F83A3A3E0F9121599
:102A3300198A088B09EA7001EB7003022B628E82FC
:102A43008F83A3E064F160288E828F83A3E064CD3B
:102A5300601E8E828F83A3E0641A60148E828F833C
:102A6300A3E064E9600A8E828F83A3E064E1701EB1
:102A730079001214EFE96016850882850983A3A300
:102A8300A3A3A3A3E04420F0A3E0F0022B318E82A2
:102A93008F83A3E0C0E074021212F3D0E01247EB7D
:102AA3001254961234CB125A07851082851183AAC9
:102AB30082AB8370051213FF80031215B58E828FCC
:102AC30083A3E064F160678E828F83A3E064CD60AB
:102AD3005D8E828F83A3E0641A60538E828F83A3FB
:102AE300E064E160498E828F83A3E064F0603F7409
:102AF300021212F3E064B7603585088285098312F8
:102B03002B6E750A01780A12103574031212F3E062
:102B1300F50A780A121035EE240C122F13123F0F08
:102B2300A3A3A3A3A3123F0712350712105E8508C0
:102B330082850983A3A3A3A3A3A3A3A3A3E06402FE
:102B430070127406850882850983A3A3A3A3A3A394
:102B5300A3A3A3F08E828F83A3A3E0F91214F5122B
:102B630014E39015441228DB0235F0E0F8A3E0F9F2
:102B7300E8FAE9FB2274F4120A4FEAFEEBFF750848
:102B8300008E828F83A3A3A3A3A3E06041750808EB
:102B93008E828F83A3A3A3A3A3A3A3A3A31240D033
:102BA3007001EB601075082C8E828F83A3A3A3A3FF
:102BB300A3E0D2E0F08E828F83A3A3A3A3A3E05468
:102BC3000364016003022C51430811022C51EE24CB
:102BD30018125A046030EE241A125A04700F125657
:102BE300D67003A3E06970667508228061EE241B2A
:102BF300122C69241A124BE4EE2419F582EF123FCA
:102C03005B12146B8048122C567003750801125620
:102C1300D67003A3E0697006E508D2E1F508E5087C
:102C23008E828F83A3A36011E07006E508D2E5804E
:102C33001BE508D2E6F5088003E060121240DAF9DA
:102C43001215BBE964016006E508C2E0F508A908AE
:102C53000235F58E828F83A3A3A3A3A3A3A3A3A368
:102C6300124EDD640222F582EF12351C122C732200
:102C73001254B6EE2274F0120A4F74DB1210C0EA3B
:102C8300FEEBFF8E828F83A3A3A3A3E060109015B6
:102C930042E07002A3E060069015421228DB74063E
:102CA3001212F3AC82AD838E828F83122F3D1254A6
:102CB300A8EE241B12571274131212F3124A6D74E6
:102CC300061212F3AA82AB8312149BE98510828544
:102CD3001183F0740C1212F3E06022741D1212F3CC
:102CE300E0FD74071212F3E0FC8E828F8312501002
:102CF3007901121A35E96003022F0B8014900458EE
:102D0300E0600E851082851183E0A2E14003022F6B
:102D13000B851082851183E0A2E6502E74231212D4
:102D2300F31240E06403700E74231212F3124F90F7
:102D3300A3E0640D601474061212F3AA82AB83122B
:102D430015DFE964017003022F0BEE242C122F13FD
:102D53001231FA7003A3E069701F75080078081236
:102D630010357808121035EE242EF582EF123F5BF2
:102D7300122F2E12350712105E74091212F3E0FAA5
:102D830090045EE06A6003022F0B740C1212F3E0EE
:102D93007003022E52122F2E125012121669740152
:102DA3001212F3124C4074011212F3E07002A3E00A
:102DB3007003022F0B74071212F3E0F88E828F83D5
:102DC300A3A3E028F8A3E03400F9740D28F582E406
:102DD30039F583E0FA74011212F3122F22E06A60CC
:102DE3001D74011212F3122F1AEAF0908861780809
:102DF30012129174011212F3122F28121273790412
:102E030074071212F312549E2AFCA3E034008C823E
:102E1300F583A3AA82AB831219938A088B098C0AC0
:102E23008D0B74011212F3122F22A3780C1212913C
:102E3300780C79081212345003022F0B90886578AE
:102E43000812116874011212F3122F2812127390D0
:102E53000470E064046008E064096003022F0B85DA
:102E63001082851183E0A2E55055EE242E125A04F8
:102E7300C0E074031212F3D0E0F0EE242F125A04D0
:102E8300C0E074041212F3D0E0F0EE2430125A04BE
:102E9300C0E074051212F3D0E0F0EE2424122F13D5
:102EA300120E2474071212F3AC82AD83740A121249
:102EB300F3AA82AB83121405740412105E8049A234
:102EC300E6504574231212F312501C7018741D122D
:102ED30012F3E06402703174061212F3AA82AB8318
:102EE3001215A9802374231212F3124F90E0640782
:102EF3007016741D1212F3E06404700C740612123F
:102F0300F3AA82AB831215A37425025388EE240B14
:102F1300F582EF12351C22A3124F91A3A3A3221211
:102F23004EC7A3A3221242BC780822EE242A1235EC
:102F330019122C73241212351922A3A3A3A3E0F9A7
:102F43008E828F83A3A32274F7120A4F74F7121091
:102F5300C0EAFEEBFF900470E06403600DE06401DF
:102F63006008E06409600302302C8E828F83A3E043
:102F730060030230087C007D007A027B001220D7B8
:102F8300EE2402FAEF124CE4125718900461124A2D
:102F93006D79531221077900123031900470E06487
:102FA30009600990046E1250121216637401124CD8
:102FB3006A7404900470F074011212F3AA82AB8352
:102FC300794A12210174011212F3AC82AD837A663D
:102FD3007B041220EF9004611254B27A037B001237
:102FE30020D79004641254B27A047B001220D79045
:102FF300045BE0A2E35004D2F08002C2F0124C5012
:103003001228D880218E828F83A3AE82AF83FC7D6A
:10301300007A037B101220D78E828F83E0F912305F
:1030230031E4900470F01214C57409023EFF900459
:103033006E12501612141122C082C083900440E015
:103043007002A3E07041900470E0120ED9000301F6
:103053005D30056C30067B308A30900448E07002A6
:10306300A3E0607B9004488070900444E07002A366
:10307300E0606C9004448061900446E07002A3E039
:10308300605D9004468052900440E07002A3E060CB
:10309300051234E2702379009004BC800909EA1216
:1030A3005390EB122F16123DF67001EB70EF900464
:1030B300BC12501212140B8026900441122F1BA332
:1030C300A3A3E0640270051215FD80139004E4E0ED
:1030D3007002A3E060099004E4124C7312232802E7
:1030E30048EC74F4120A4F74FB1210C08A088B095F
:1030F3001231E37001EF70030231DE74028E828FAE
:10310300831251F87950122101850882850983A31E
:10311300E060030231CC90046EE064FF7004A3E02E
:1031230064FF603590046EE064FE7004A3E064FF06
:1031330060278510828511831231FA7003A3E06939
:10314300601774EA850882850983A31235217A6E94
:103153007B047950122107807085108285118312B8
:103163005789124A6D7A617B0479531221019004C5
:1031730061124A647A647B04794B1221017A637B7E
:103183000479E1122101900475E0C3940F50229059
:103193000463E0C0E074021212F3D0E0F07404128E
:1031A30012F37401F074021212F3AA82AB83122198
:1031B30019750A00780A121035780A12103590151D
:1031C30063E0F91234FE12105E85088285098312CA
:1031D30031F4F07403900470124CD274050235F28A
:1031E3007A0F7B001219A58A0A8B0BAE0AAF0BEE7E
:1031F30022A3124A1FA32212578DE0682274F212EF
:103203000A4F74ED1210C0EAFEEBFF8E828F83A388
:10321300123F2A851082851183AC82AD838E828F03
:1032230083A3A3A3A3122F3D12500B1214D1851015
:1032330082851183E0706A8E828F83A3A3A3A3A3E5
:10324300A3A3A3E0C3940B4058850882850983A3F5
:10325300A3A3A3A3A3A3A3E064027045900470E017
:1032630064026042E06406603D900440E07002A3A3
:10327300E060051234E2605E900470E0640860056B
:10328300E06404701C74021212F3E0F97407121262
:10329300F3AC82AD83850882850983125009121429
:1032A300D774130228BF900440E07002A3E0702695
:1032B300750A00780A121035780A1210351234C2D2
:1032C300122F161234EBFCA3E0FD850882850983D7
:1032D30012350712105E9004BC1242CF9004BCE07A
:1032E300F50AA3E0F50B80378E828F83E0F8A312F3
:1032F30034EB687003A3E06970198E828F83A3A3F4
:10330300E0FAE508240DF582E509125A076A70030D
:103313000233968E0A8F0BEE125390EF1242CCEECD
:103323007001EF70C37A187B00121A118A0C8B0D8F
:10333300AE0CAF0DEE7001EF70030232A49004BC2B
:10334300E07002A3E070059004BC800AE50A125302
:1033530090E50B122F1612560C8E828F83124CFDA2
:10336300EE240C122F1374FFF0E48E828F83A3A339
:10337300A3A3A3123D57A3A3A3123510E4F0A3F014
:10338300E508240B125D231234B8123B34C4123403
:10339300B8A3F074011212F3124CCCF0740212129F
:1033A300F31234DAA3F0E508240DF582E509122FB0
:1033B300161231F5A3124DC7A3A3125D3E124A6D37
:1033C30074021212F3E06401601174071212F3AC79
:1033D30082AD83EE240D1234D180117C087D0079F7
:1033E300FFEE240DFAEF3400FB12198D7412121242
:1033F300F3E0C0E0EE2415122F13D0E0F090156334
:10340300E0C0E01234C2124BE7D0E0C39A4003029B
:1034130032A41234CB122F16A3E05480F9E47001C6
:10342300E97009900E7CE070030232A47406121254
:10343300F31234DA700EE0706274041212F3E07067
:10344300060232A4E0601474051212F3E0C0E0EE49
:10345300240C124BE4D0E0C39A502B8508828509D3
:1034630083125D4C124A6B1234C2125A07C0E01227
:103473002F10D0E0F074051212F3E0C0E0EE240C3C
:10348300122F13D0E0F074061212F3E0600D7401F2
:103493008E828F83A3A3A3A3A3A3F074041212F3B6
:1034A300E070030232A474018E828F83A3A3A3A3CB
:1034B300A3F00232A4540F8E828F83A3A3A322E529
:1034C300082410F582E50922E508240B80F5FAEFBC
:1034D3003400FB1220EF221234DE22E0023CA690DD
:1034E3000440123844640122E0F985088285098387
:1034F300A3A3A3A3A3A3A3A3A3E02290046E1254A4
:10350300B6900464125016121585740222A3F0EECD
:10351300241612351922F582EF3400F58322F07A4E
:10352300617B04795312352C221221077A647B04C0
:10353300794B1221072274F2120A4F74F81210C049
:103543008A0A8B0B8C0C8D0D89088510828511835B
:10355300AC82AD8375838875821D7408120F72F572
:1035630009AC0AAD0B851082851183AA82AB831245
:1035730051F270037509019004BC80158E828F830C
:10358300E0650C7004A3E0650D6023EE2416122F92
:10359300131242CFEE7001EF601FE50960DEAC0A43
:1035A300AD0BEE240DFAEF34001251F160DD8E8283
:1035B3008F83A3A3E0650870D2EEFAEFFB740802D1
:1035C30028BF74F7120A4F9004BCE0FAA3E0800C02
:1035D300EA24161242C9121A17EEFAEFFBEA700137
:1035E300EB70ED9004BCE4F0A3F0023F027403120D
:1035F300105E7F04020CB174F2120A4F8A0C8B0D19
:10360300ECFEEDFF890B8A828B831253958A828BA2
:10361300831236BDEEF8EFF9A30EAF838A828B8354
:10362300A3A3E0C454F0FA88828983E04A1236C81F
:10363300124A1F1236C3E0333354FCFA8E828F834F
:10364300E04A1236C3A3E033333354F8FA8E828F41
:1036530083E04AF008EFF9A30EAF83850C828B83D6
:10366300A3A3A3A3A3A3E0A2E0E492E013135480D3
:10367300FA88828983E04AF0E50C2407F508EB1207
:10368300478712102D7C081244FE12105E125475E7
:10369300E50C240FF508E50D3400F5097808121040
:1036A3002D7C031244FE12105EE50BC3940F4007FA
:1036B30012378A124A15F00228C2A3124A1FF022B7
:1036C3001236C8A322F0850C828B83A3A3A3227492
:1036D300F2120A4FEAFEEBFF890B8C0C8D0D8E82E2
:1036E3008F83E08C828D83123D5CAE82AF83E012C8
:1036F300489C1237A0C412489C123793E054038CA1
:10370300828D8312379EA2E2E492E08C828D831233
:10371300379D131313541F12489C12379CA2E7E4DE
:1037230092E08C828D83A3A3A3A31237938E088F79
:1037330009750A00780812102D7C087D00E50C2419
:103743000712544B12105E1254758E088F097808B5
:1037530012102D7C037D00E50C240F12544B121024
:103763005EE50BC3940F40148E828F83A3A3A3E063
:10377300C0E012378A122F16D0E0800712378A1260
:103783002F16E4F00228C2E50C2412F582E50D227F
:10379300A3A3123D5C0EAF8322A3A3A3A3A3F08E26
:1037A300828F83E02274F4120A4F74F91210C0EA74
:1037B300FEEBFF900440E07002A3E0601012383D7E
:1037C30064027009EEFAEFFB1215F7806890046E3D
:1037D300E06E7003A3E06F705C74016960097A8224
:1037E3007B041251F2704E7A007B029004BBE0F925
:1037F300121AB9EA7001EB703C9004717808121246
:10380300918510828511837808121273900477E0F2
:10381300C0E074041212F3D0E0F074051212F374D2
:1038230001F074061212F374021251F81213DBE959
:1038330060921213E174070235F290044012384487
:10384300221242C0A3A3E02274F6120A4FEAFEEB4F
:10385300FF8E828F83A3858208858309E0F9121482
:1038630029850882850983E064EB600A8E828F8351
:10387300A3E064E17007E48E828F83A3F01228D85B
:1038830075080178081210358E828F83A3E0F5083E
:10389300780812103579001234FE12105E1214E308
:1038A300024C4B74F6120A4F9004CDE0701F7C005B
:1038B30079017A007B00121513EA7001EB600E8A1E
:1038C300828B83E07002A3E06003121483024C4BEB
:1038D300C082C083123D48401079FF12150DE9FAEA
:1038E3009026C9E493C39A500479018002790002B7
:1038F30048EC74F1120A4F8A0A8B0B890E75090082
:103903008A828B83A3A3A3A3A3A3A3A3E0F9121582
:10391300198A0C8B0DAE0CAF0D750801EE7001EF1B
:1039230060030239CB850A82850B83A3A3A3A3A3D8
:10393300A31254B2850A82850B83A3A3A3A3A3A3D3
:10394300A3A3E0F9850A82850B8312501212150195
:103953008A0C8B0DAE0CAF0DEE7001EF7003023BC2
:103963000A8E828F83A3A3A3A3E4F0A3F0E50A2422
:103973000BFAE50B124CE4E0C0E0122F10D0E0F09C
:103983001215D3EE240C124C39750901EE2406F8F6
:10399300EF125D26547FF0A3E054FC123B34540431
:1039A3006003023A51901548E0F50A750B0074075D
:1039B300780A1211ED8E828F83A3A3A3A3A3A3E09E
:1039C300450AF0A3E0450BF08E828F83A3A3A3A344
:1039D300A3A3E05480F50AA3E05403F50B7407781E
:1039E3000A121264E50E607974028E828F83A3A398
:1039F300A3A312379C240D125022A2E2500B900471
:103A03005CE0F8122F40124A6BE50A7003023AD8C1
:103A1300EE2406F8EF3400F9E8FAE9FB8A828B8397
:103A2300E0547FFCA3E054FCFD74FF250AF50A74FF
:103A3300FF3400F50B7407780A1211EDE50A4CF810
:103A4300E50B4DF98A828B83124A6D023AD88E8236
:103A53008F83A3A3A3A3A3A3E04480F0A3E002392D
:103A6300CAE50A7005750800806B8E828F83A3A355
:103A7300A3A3A3A3E05420601712199F8A0A747F9B
:103A8300550AF8745F288E828F83A3A3A3A380278C
:103A93008E828F83A3A3A3A3A3A3E05410600E126B
:103AA300199F8A0A740F550AF8740180D88E828F81
:103AB30083A3A3A3A37401F0A3E4F074048E828F01
:103AC30083A3A3A3A3A3A3A3A3A3123D637001EBA7
:103AD3007003123B1474016509702F8E828F83A3C8
:103AE300A3A3A3125267F9EEFAEFFB121507E960DD
:103AF30019EE240C125A047002A3E06003123B2156
:103B0300EEFAEFFB121A17750800A9087F07020CDB
:103B1300B17A207B009004BBE0F91219D522EE2480
:103B23000C123519123B2B22E0FAA3E0FB121A17F1
:103B330022F088828983E02274F4120A4F75080008
:103B43001215198A0A8B0BAE0AAF0BEE7001EF70D8
:103B530003023BE08E828F83A3A3A3A3A3A3A3A308
:103B6300A3E06406707712152B8E828F83A3A3A321
:103B7300A3A3A3A3E05408F9E47001E9605C8E8277
:103B83008F83123F1E7A007B001214FBEA7001EB55
:103B93007048123BE31221317C007D007A007B00E8
:103BA30080228E828F83123F187004A3E064FF602B
:103BB30029123BE3121E5BE9641A601E7C007D0040
:103BC300EEFAEFFB1214FB8A088B09AE08AF09EE7D
:103BD3007001EF70CD7900122137750801022C5165
:103BE30090046E12526D1250162274F7120A4F8A05
:103BF300828B83E5827002E58370099004CE800690
:103C03008A828B83A3A3123DF67001EB602C8A8218
:103C13008B83A3A3A3A3A3A3A3E05408F9E4700194
:103C2300E960DDEC7001ED60158A828B831240E060
:103C33006C7003A3E06D70C880047A007B00023FC0
:103C43000274F2120A4F8A088B09890AECFEEDFF0F
:103C53007A0E7B00121A11EA7001EB603EE48A824D
:103C63008B83A3A3A3A3A3A3A3A3123CA1E50A123B
:103C730047D1A3A31256088A828B83A3A3A3A3E4E9
:103C8300F0123CA11247CF125496EA240CF582EBB2
:103C93001240CA1247D0A3A3F0A3F00228C2125BBA
:103CA3000680058E828F83A3A3A3A3A3A32274F507
:103CB300120A4FEAFEEBFF890A8C088D09EE7001A8
:103CC300EF60597401650A7014790112150DE9FA50
:103CD3009026C6E493C39A500F79118063740465E8
:103CE3000A7033123D4840F18E828F83A3A3A3A3AE
:103CF300A3A3A3A3A3E50A123D571254948E828F64
:103D030083A3A3E4F0A3F09004CEE07002A3E090B9
:103D130004CE601B800A7402650A60CC79C18020DE
:103D230012527A7002A3E088828983A3A370F1EE12
:103D3300F0A3EF123D637001EB7003123B147900A3
:103D43007F03020CB1790412150DE9FA9026C5E43C
:103D530093C39A22123D5CA322F08E828F83A32207
:103D6300F07A207B009004BBE0F9121AB9EA22C072
:103D730082C083E9FC79009004CE801D8A828B8304
:103D8300A3A3A3A3A3A3A3A3A3E06C600574FF6CE5
:103D93007001098A828B83A3A3123DF67001EB7035
:103DA300DB0248EC74F7120A4F8A828B83E5827038
:103DB30002E58370099004CE80068A828B83A3A3D5
:103DC300123DF67001EB60248A828B83A3A3A3A325
:103DD300A3A3A3A3A3E06970E1EC60148A828B839D
:103DE300E0240D12539FA2E240D080047A007B00AE
:103DF300023F02125016EA22C082C0839004CE8092
:103E0300068A828B83A3A3123DF67001EB60128AAC
:103E1300828B83A3A3A3A3A3A3A3A3E06970E280DC
:103E2300047A007B000248EC12571CE82274F1125A
:103E33000A4F8A0A8B0B8C0C8D0D750800750900CF
:103E4300EA7001EB602E9004CE80068E828F83A3EE
:103E5300A31242CFEE7001EF601AAC0CAD0DEEFA77
:103E6300EFFB850A82850B83122328E9640170DB4B
:103E73008E088F09AA08AB09023B0F74F7120A4F89
:103E83009004CE1257187C007D00800DE8FCE9FDFC
:103E930088828983A3A3125718E87001E96030EA86
:103EA300687002EB6970E59004CE125012E86A70F4
:103EB30002E96B88828983A3A370081257189004C0
:103EC300CE80091257188C828D83A3A3124A6D02E8
:103ED3003F0274F7120A4FEAFEEBFFEE7001EF6048
:103EE30016121525123F347002A3E06003123B2122
:103EF300EEFAEFFB121A17023F02741F12105E7FD5
:103F030001020CB11254B68A828B8322E0F98A82B1
:103F13008B83023CAC1240E464FF221240E4FCA316
:103F2300E0FD228E828F83A3A3E0F508A3E0F509C9
:103F3300228E828F83E0241C125026123B2C8E8209
:103F43008F83123B2BEE240C123F4F22F582EF346A
:103F530000F583E022F582EB123F52F92274F2124C
:103F63000A4F74FC1210C0EAFEEBFF7508FE7509D8
:103F7300FF1214E9E9600579110240BFEE2415121E
:103F83005A04603790155DE0C43354E0C0E0E03379
:103F93003354FCFAD0E04AC0E0EE2415122F13D0BC
:103FA300E0123D571240D07001EB600F7508FF120D
:103FB3004DB3EE2415125A04D2E0F08E828F831291
:103FC3004ED76006EE24121240C7EE2413125A0491
:103FD3007003741EF0125A0164017016900F4CE0C6
:103FE300600D900458E0700A8E828F83E070031294
:103FF30040C4EE2414125A04701590044DE0C0E03E
:10400300EE2414122F13D0E0F090044DE004F08E50
:10401300828F83E064017016EE240B1240DD64028C
:10402300700CEE240F125A044440F0A3E0F0851004
:1040330082851183AC82AD83EEFAEFFB1215438ABE
:104043000A8B0B74FE6508700474FF64FF7003121F
:104053003F26EA7001EB60608E828F83E0C0E074DC
:10406300011212F3D0E0F074021212F312560C7420
:10407300011212F385820C85830D780C121031EE38
:10408300240F122F13120E28EE240E125A04F50CCD
:10409300780C12103574051212F3E0F9AC08AD096F
:1040A30012153D740512105EE9FE74106E700BAAB2
:1040B3000AAB0B121A1780027E10EEF97404022861
:1040C300BFEE2411F582EF12351CE4F022125016D4
:1040D30079FF122197EA22EE241D1235191240E4CA
:1040E30022124F86E022C082C08374DE1210C08A7F
:1040F300828B83A3A3A3A3125718740E1212F3E89F
:10410300F0A3E912419B740C1212F3124194240D93
:10411300F582EB125A07C0E0741A1212F3D0E0F0E2
:1041230012527312571574201212F312419424156C
:10413300F582EB125A07C0E074081212F3D0E0F0D4
:10414300EA241CF582EB12571574121212F3124A69
:104153006D74FF851082851183F074011212F3745C
:10416300FFF074021212F374FFF0908861120E24B0
:1041730074041212F3AC82AD8374071212F3AA8291
:10418300AB83121405740412105E79007422024882
:10419300E9E8F0A3E9F0EA22F08A828B83A3A31271
:1041A300571C2274F0120A4F74EE1210C0741012CE
:1041B30012F3124C408C088D09890B74221212F3EE
:1041C300E0F50C74231212F31242CF74251212F38A
:1041D300E0F50EA3E0F50F750A107A1E7B00121AA4
:1041E3001174021212F3124C4074021212F3E070B3
:1041F30002A3E070030242AF851082851183AA8275
:10420300AB837950124AF61212F31242B6A3124C40
:104213004074021212F3E0240B1229A87402F01264
:1042230012F31242B67402F01212F3124C731254C8
:104233009674021212F3E0241B1229A8E50BF07402
:10424300021212F3E0240C1229A8E50CF0741012E8
:1042530012F3124AFF1212F3E0241C1229A8124C83
:104263004074081212F312560C740A1212F3E50C7E
:10427300F0850E82850F83C082C083740D1212F302
:10428300AC82AD83D083D0827403120F72F97402AF
:104293001212F3AA82AB831214EFE964017005755D
:1042A3000A00800874021212F3123B27A90A74123F
:1042B3000253881242BC023CAC1242C022124F8A03
:1042C300023CACEA240BF582EB12351CE0FEA3E0C2
:1042D300FF2274F0120A4FEAFEEBFF8C088D09747B
:1042E300088E828F83123510E0600874108E828FDF
:1042F30083A3F0EE2417125A0460098E828F83A3DE
:10430300E02408F0EE2415125A0460088E828F838D
:10431300A3E004F08E828F83A3A3A3A3A3A3E060EF
:10432300198E828F83A3A3A3A3A3A3A3E0C33324E0
:1043330002FA8E828F83A3E02AF0125A0160057578
:104343000B0E8003750B008E828F83A3E0C0E0EE1B
:10435300240D122F13D0E0FAE02A250B8C828D83D3
:10436300F0125A016005124A9A2AF08508828509DB
:1043730083E0C3947540030244F1E0FA7B00121A10
:10438300118A0E8B0FEA7001EB70030244F7EEFA09
:10439300EFFB121549EA850E82850F83124C41EE1D
:1043A3002402F812450A124529F0EE2404080812E3
:1043B300450AA3A3124529A3A3F0EE24131245151E
:1043C300F0EE2414124515A3F0750C08EE24161212
:1043D3005A046013EE24181254AFE50E2408FAE5CC
:1043E3000F1234D3750C10EE2417125A046019EE11
:1043F300241A1254AF850C08E50E2508FAE50F12AE
:1044030034D37408250CF50C8E828F83A3A3A3A346
:10441300A3A3E060728E828F83A3A3A3A3A3A3A30A
:10442300E0C0E0850C08E50E2508F582E50F122FA4
:1044330016D0E012451FE0C0E0850C08E50E250804
:10444300F582E50F122F16D0E012451FA312545424
:1044530012102D8E828F83A3A3A3A3A3A3A3E0C3D0
:1044630033FCE433FD850C08E50E2508FAE50F124D
:10447300544E12105E8E828F83A3A3A3A3A3A3A380
:10448300E0C333250CF50CEE2415125A046010C05A
:10449300E0E50E250CF582E50F122F16D0E0F012A1
:1044A3002F1012545412102DEE240D125A04FC7DB9
:1044B30000850B088E828F83A31247AAE50828FA8A
:1044C300E43912450312105E125A016027EE240DDF
:1044D300125A04FD8E828F83A3E0FCAA0EAB0F79E0
:1044E30000121A35E9600DAA0EAB0F121A17750EDA
:1044F30000750F00AA0EAB0F02538B7D00EEFAEF8F
:10450300FB121981740322EF125D2A850E82850F37
:104513008322123519124530A3A3A322F0050C8E72
:10452300828F830260E512453B12453022E0850EFF
:1045330082850F83A3A3A322A3A3F088828983A3E5
:104543002274F6120A4FEA2415F582EB125A076019
:10455300047C0180027C008A828B83E0FE90045EEF
:104563001245E5740278081211EDE5084EFEAF0915
:10457300EA24121245DF740678081211EDE5084E9D
:10458300F8E5094FF9ECFDE8FCED49FDEA241112C9
:1045930045DF740978081211EDE5094DFDEA24168B
:1045A3001245DF740B78081211EDE5094DFDEA247D
:1045B300171245DF740C78081211EDE5094DFD8AD9
:1045C300828B83A3A3A3A3A3A31245E5740A78084C
:1045D3001211EDECFAE5094DFB024C4BF582EB129F
:1045E300351CE0F5087509002274F0120A4F74FEB9
:1045F3001210C08A0E8B0FECFEEDFFE98E828F83C3
:104603001247D1124A2C850E82850F83A3A312472A
:10461300A5124A561247F31247A5124A451247F309
:10462300A3A3E0C0E0EE2411122F13D0E01247FA47
:10463300A3A3A3E0C0E0EE2412122F13D0E0124A8A
:10464300AC600AE50E2408F8E50F124A738E828FD8
:1046530083A3A3A3A3A3A3A3A3E060218E828F8339
:10466300A385820C85830D1247AAEE2415122F13FE
:10467300124A6D850C82850D83E02408F08E828FAB
:1046830083A3A3A3A3A3E0600F1247B68E828F83F5
:10469300A3A3A3A3A3124804EE2418125A04607C14
:1046A3001247B6C0E0EE2419122F13D0E0124804CB
:1046B300F8E50E28F582E50F125A07C0E0EE241A3A
:1046C300122F13D0E012480412477DE433FB124744
:1046D300D57002A3E060458E828F83A3E0F8E50ED8
:1046E30028F508E50F12478712102DEE2419125AE8
:1046F30004C333FCE433FD74031212F31250121299
:10470300450412105E12477D850C82850D83E02AD5
:1047130012545CEE241B122F13124A6D8E828F8368
:10472300A3E0FA8A08E50E2508F8E50F34001247DE
:10473300911237A1C39AC0E0EE2417122F13D0E0D1
:104743001261FEE06031EE2417F508EF3400F5093D
:10475300850882F583E024F2F0EE241DF8EF125D64
:1047630026240EFAA3E03400FB88828983EAF0A3AF
:10477300EB124A95C39AF0025386EE2419123F4F67
:10478300C333FA223400F509750A00780822F9EEDA
:10479300241D12479922F582EF3400F583E8F0A334
:1047A300E922E0FA02450EE0F8E50E28F8E50F34B9
:1047B30000F9228E828F83A385820C85830DE0F816
:1047C300E50E28F582E50F123F5222A3A3A3F002C0
:1047D3003F0A121A11851082851183EAF0A3EB12A6
:1047E30047E6221247EBE022F085108285118322EF
:1047F300F0A3E91247FA22F0850E82850F83023C6B
:10480300ACF0850C82850D83E004F02274F4120A67
:104813004F8A088B09EA1248A3F0EA1313543F1294
:10482300489CA3A3A3F0EAC413131248A3A3A3F0C1
:10483300EB124889F08A0A8B0B7409780A12126406
:10484300E50A124889A3F08A0A8B0B740A780A12C4
:104853001264E50A5401C0E0EC2418F582ED122F2E
:1048630016D0E0F08A0A8B0B740B780A121264E5F7
:104873000A124896F0740C7808121264E50812487C
:1048830096A3F00235F512488D2254018C828D8354
:10489300023CAB12488DA3A322540F8C828D83223A
:1048A30054038C828D83A3A322C082C08379008AA0
:1048B300828B83A3A3A3A3A3A3E0900458600FE078
:1048C30070228A828B83A3A3E07019098016E060AB
:1048D300138A828B83125009900461E06A7003A3E8
:1048E300E06B70E7800312105ED083D082020FF674
:1048F30074F3120A4F8A0A8B0B890CECFEEDFF8AC4
:10490300828B83124A2C850A82850B83A3A3124AC6
:1049130023124A56124A84124A23124A45124A84DF
:10492300A3A3E0C0E0EE2411122F13D0E0124A8BB0
:10493300A3A3A3E0C0E0EE2412122F13D0E0124A87
:10494300AC600AE50A2408F8E50B124A738E828FDD
:1049530083A3A3A3A3A3A3A3A3E0601B8E828F833C
:10496300A3124A33EE2415122F13124A6D850882BF
:10497300850983E02408F08E828F83A3A3A3A3A3D6
:10498300E060238E828F83A3858208858309E0F804
:10499300E50A28F582E50B124A15A3A3F0850882E0
:1049A300850983E004F0EEFAEFFB12155BE9705D15
:1049B3008E828F83A3A3A3A3A31231F47025E0FCFB
:1049C3008C08E50A2508FAE50B3400FBEE241D12DA
:1049D3004C39E50CC39CC0E0EE2417122F13D0E032
:1049E300F0802A124A33740E28F8E43912479112E0
:1049F3004A95FCE50CC39C24F2C39AFDEE241712DE
:104A03002F13EDF0AA0AAB0B7901121A357F0502B9
:104A13000CB112351C124A1FA3A3A322E0025D4767
:104A2300E0FA850A82850B8322125016121555224D
:104A3300858208858309E0F8E50A28F8E50B340048
:104A4300F922A3A3A3A3A3E0F9EAF8EE240B1235FA
:104A530019E822A3A3A3E0F9EA8E828F83A302605D
:104A6300E512571C8E828F83A3A3E8F0A3E9F022FB
:104A73003400F9EE2413124799123D5CE02408F048
:104A830022F0A3E9124A8B22F0850A82850B830266
:104A93003CACF0124A9A22900459E0F91222A5E99B
:104AA300FA850882850983E022F074088E828F8359
:104AB300A3126202A3E022C082C0837AD37B04796B
:104AC300E21221017AD37B040248ECC082C08390B6
:104AD30004611250120248ECC082C08374FE1210AB
:104AE300C0851082851183AA82AB83794B124AF663
:104AF3000248E91221018510828511831250167430
:104B03000222C082C083794A1221010248EC74F662
:104B1300120A4F9004DBE0FE04F0EEF9121519EAD5
:104B23007001EB70EEEE60EBF9024C4B74F0120A7D
:104B33004FEAFEEBFF8C0E8D0F890874101212F3EF
:104B4300E0F50D74111212F3E0F50C75090012165D
:104B5300698A0A8B0BA80AA90BE87001E97013E5AF
:104B63000C705DA908AC0EAD0FEEFAEFFB121687C1
:104B7300806CE508601FE82402F582E9124BE7E543
:104B8300082AFAE4340013EA13F0700974018882E6
:104B93008983A3A3F0E50C6045E50D701088828935
:104BA30083E0600214F0E49004EAF080319004EAB8
:104BB300E004F0FA901549E06A7023750901800357
:104BC300E4601BE5096017121573EA6E7002EB6F60
:104BD300700CEEFAEFFB7901121423124BEC025323
:104BE3008BF582EF123F52FA227A017B009004BBCD
:104BF300E0F9121AB322C082C08374016A7001EB18
:104C030070077A01123B168014901540124C40EA4B
:104C13007001EB60051228C78003124BEC0248ECCD
:104C2300C082C083901542124C400248ECC082C03F
:104C33008390154480F1F582EF3400F583EAF0A305
:104C4300EBF022740D12105E7F02020CB1A2F0E4AD
:104C530092E0124C5E79521221072285108285114F
:104C630083F0AA82AB8322124C5E7942122107227F
:104C7300124F8222AA82AB831214CB7ABE7B0479B1
:104C8300451221072274F7120A4F74ED1210C0E97E
:104C9300FE9004BA12502D124CBF74121212F3EE8E
:104CA300124CB4851082851183124C777413023E23
:104CB300FFF09014EAE0F97CBE7D04229014EAE050
:104CC300F97ABE7B041214D1221234DEA3A322F09C
:104CD300124CD722EEFAEFFB9004BBE0F91219B1A4
:104CE300223400FB023F0AF582EF124DED22A3E0CE
:104CF30088828983F0A308A98322A3A3A3A3A3A3E0
:104D0300A3A3A374FEF0A374FFF02274F4120A4F5A
:104D13008A088B097A007B04124BF0124D9B124ACE
:104D23006D7409900470F01215678A0A8B0BAC0A34
:104D3300AD0BE5082413F582E509122F1612501264
:104D43001251F26401704E1231E37001EF60467448
:104D5300028E828F83F0E508241DF8E5091229AF3E
:104D63001250128A828B83A3E0FC8A828B83A3A3D3
:104D7300E0FBEC8E828F83A3A3F0A3EB123B34F80A
:104D8300122F1A124A1F124DA5FAA3E0FB794A12F9
:104D93002107124CD70235F590044212571C901587
:104DA3004422A3F0E5082415F582E509123F5222B7
:104DB300EE240F123F4F4404F0A3E0F022124DCD36
:104DC300A3A3A322124DC0A3A322F08508828509C1
:104DD30083A3A322EE2417124DEA121567EE241AB9
:104DE300123519EA024C41F582EF3400F583740160
:104DF300F02274F6120A4F74F31210C0EAFEEBFFAE
:104E03007C0D7D007900851082851183AA82AB8396
:104E130012198DEE241DF582EF124EC0E0F85420D6
:104E23006008740C1212F37401F0E8548060087483
:104E33000B1212F37401F0E85440600A740A121260
:104E4300F37401F0800A740A1212F3E0640170052E
:104E5300EE24138003EE24151254AF74021212F3DE
:104E6300AA82AB831220EF122F10124F71124A6DD8
:104E7300740A1212F3E064017033124ECC703B12C9
:104E830015738A088B09A808A909EE240B125A0482
:104E9300687003A3E0697022121567EAFCEBFD74E6
:104EA300021212F3AA82AB831251F2600D851082B3
:104EB300851183AA82AB8312141D024C4612351C42
:104EC300124EC722124F86A3228E828F83A3A3A3DF
:104ED300A3A3A3A3A3A3124EDD22E0FAA3E0FB1234
:104EE30015CDE92274F6120A4F74F31210C08A0822
:104EF3008B09ECFEEDFF7C0D7D007900851082852A
:104F03001183AA82AB83125F75A3A3A3A3A3A3A355
:104F1300A3A3124F71E8F0A3E9124F77A3E0FAA21B
:104F2300E55008740B1212F37401F0EAA2E750087B
:104F3300740A1212F37401F0EAA2E6EE5004241389
:104F4300800224151254AF74021212F3AA82AB83A7
:104F53001220EF850882850983A3A3E0C0E0740CC7
:104F63001212F3D0E01251F8121417024C461257E2
:104F73001C0247ECF0EE241D123519124F82221247
:104F83004F8622124F8A22E0F8124F9022A3E0F5B7
:104F93008388822274F7120A4F74E11210C0EAFE6A
:104FA300EBFF8E828F83123840A2E050568E828FA1
:104FB30083122B708A828B83A3A3A3A3A3A3E0549E
:104FC300FEF0A3E012502D8A828B83E0241B125043
:104FD30022F98A828B83E0241CFAA3E0124CE412A8
:104FE3005012121561E9701B741D1212F312501C3A
:104FF3007011851082851183AC82AD83EEFAEFFBCD
:105003001215AF023EFDA3A3A3A3A3A3A3A3A312BD
:10501300501622E0FAA3E0FB221240E464042212B9
:10502300502622F8A3E0125D2E221247EBAC82AD8C
:105033008322E9FA790074046A600A740A6A6005D3
:1050430074036A700109020FF674F6120A4F742092
:105053008A828B83F07401A3A3F01213CF8A088B87
:1050630009AE08AF09EE7001EF600774018E828FFD
:1050730083F09004AEE07003124DD7EEFAEFFB021B
:105083004C4BC082C08374019004D0F0E9A2E3507A
:10509300037403F0E9A2E15004E0D2E2F00248EC29
:1050A30074F6120A4F79007C008A088B097808127B
:1050B3000CF7F8FF07D650D450D450D450D450CD69
:1050C30050D150D650CA500C80097C0480050C8006
:1050D300F67C089004D0E05C6003098003EC600177
:1050E30009024C4B74F6120A4F8A828B83E07014C8
:1050F300A3E07002A3E0600C8A828B83125011122A
:10510300228D80047A007B00024C4B74F5120A4F07
:1051130074F31210C0EAFEEBFF8C088D09750A12B6
:10512300EE7001EF700579000251E3900461E06EC7
:105133007003A3E06F7018121567EAFCEBFDAA0871
:10514300AB091251F27005750A018003750A00E478
:10515300851082851183F074011212F3EEF0A3EF30
:105163001251F81212FDE9602B74031212F3AA8292
:10517300AB831221C7E96401701A750A0174031223
:1051830012F3AC82AD83AA08AB091251F260217508
:105193000A00801C7412650A70169004ADE0640264
:1051A300700EAC08AD09EEFAEFFB12131BE970DFCA
:1051B300AC08AD09EEFAEFFB12166FE9FA740A6A4E
:1051C3007005750A01801774A06A7012AC08AD09E6
:1051D300EEFAEFFB12167BEEFAEFFB121693A90A17
:1051E300740D12105E023D432431FAE93414FB12AC
:1051F30020E9E922E41251FC2212520022F0851028
:1052030082851183024C6574F7120A4FEAFEEBFFA5
:105213007508008E828F83A3A3A3A3A3A3A3A3E0F4
:105223006017EE2415122C69122F11125012121549
:10523300D9E9640170037508018E828F83A3A3A348
:10524300A3A3A3A3E06018EE2413122F1312526733
:10525300FAA3E0FB1215D9E964017003750801A9EB
:1052630008023F0212526D0234F31254B6025D4734
:10527300EA240BF582EB2212571C88828983A3A3AD
:10528300E02274F0120A4F74F31210C07403121266
:10529300F3ECF0A3EDF08A0E8B0F890B741D121241
:1052A300F3E0F50A7E01EE1212F3740AF0E97007D7
:1052B300E50AC333240AF0851082851183AA82ABE1
:1052C300831215C18A088B09EA7001EB700302533C
:1052D300801242C6740912547E450A12548B12126C
:1052E300F3125464E50B70307A008026EAC333F876
:1052F300E433F9741E1212F3E028F8A3E039F988B5
:10530300828983125395888289831236BDA30EAF97
:10531300830AEAC3950A40D4E5082417F582E50910
:10532300124CED121567E508241AF582E509124CB3
:105333003C74051212F3AC82AD83AA0EAB0F12219B
:10534300B5E96021E508125390E509124CED7405A7
:105353001212F3A882A983E5082418F582E509123D
:105363002F16124A6D850882850983A3A3E50EF0E3
:10537300A3E50FF0AA08AB091213C9E9FEEEF9740D
:105383000D8002740212105E7F08020CB12416F520
:105393008222124A1FF0A3AE82AF8322FEA3E0341F
:1053A30000FF0237A274F0120A4F74FE1210C08578
:1053B3001082851183124C4089088C0E8D0F741254
:1053C3001212F3E0F50B900EBCE07002A3E06075DF
:1053D300E50BC333F8E433F9740E28FAE439FB120E
:1053E30019A58A0C8B0DAE0CAF0DEE7001EF605555
:1053F30074D48E828F8312545C124A678E828F8399
:10540300A3A3A3A3E508F0AC0EAD0FEE240512345D
:10541300D1EE240D122F13E50BF074131212F312B5
:10542300545412102DE50BC333FCE433FDEE240E6C
:10543300FAEF12544E12105EEEFAEFFB900EBC120E
:105443004C73122328025386FAE50D3400FB024500
:1054530004E0F508A3E00247891247E6F8A3E0F960
:1054630022122C73FAEFFB12546E221220EF125405
:105473007522EE2408FEEF3400FF228E828F83F024
:10548300A3E50BC43354E022F0A3AE82AF837403CD
:1054930022A3A3E508F0A3E509F022E0FA8E828FA8
:1054A30083A3A3E02212501612154F2212351912AC
:1054B30054B622E0023F2174F7120A4FE9FE7C0042
:1054C3007D0078007900800C12558A2CFCA3E03D06
:1054D300FD125EB01261025037E8FAE9FBEA75F09B
:1054E30012A4FAAFF075F012EBA42FFBEA24B9F57E
:1054F30082EB3412F583E064FF60D612558A7002A2
:10550300A3E060CDEE60C112558FE4F0A3F080C13B
:1055130078007900800C1255692CFCA3E03DFD1244
:105523005EB01260F55038E8FAE9FBEA75F017A4AB
:10553300FAAFF075F017EBA42FFBEA1260F0EB1251
:1055430060C37004A3E064FF60D51255697002A3C1
:10555300E060CCEE60C012556EE4F0A3F080C0ECC6
:10556300FAEDFB023F0212556EE022E8FAE9FBEA8C
:1055730075F017A4FA75F017EBA42FFBEA2444F592
:1055830082EB3414F5832212558FE022E8FAE9FB0B
:10559300EA75F012A4FA75F012EBA42FFBEA24C506
:1055A300F582EB3412F5832274F6120A4FEAFEEB0E
:1055B300FF9004D1801388828983E06E7003A3E097
:1055C3006F603F88828983A3A3123E2B7001E97029
:1055D300E57A047B00121A118A088B09A808A90925
:1055E300E87001E9601C8882898312560C9004D10B
:1055F30012501288828983A3A3124C409004D112C3
:105603004A6D024C4BA3A3A3A3EEF0A3EFF02274C5
:10561300F4120A4F7E009004D180070E888289839A
:10562300A3A3123E2B7001E970F1EEC333FAE43306
:10563300FB1256C67001EB70030256C07F00900444
:10564300D18024888289831254B2EFC333FAE433BE
:10565300FBE5082AF582E5093BF583ECF0A3EDF0C1
:105663000F88828983A3A3123E2B7001E970D49023
:1056730004B61256E37003A3E06978087019121098
:1056830031EEF50A780A1210357C827D0479009098
:1056930004B61256CF801A121031EEF50A780A12A8
:1056A30010357C827D0479009004B61250121215D5
:1056B300E5740312105EAA08AB09121A171213E15C
:1056C3000235F5121A118A088B09EA2212501612B2
:1056D30015EB228E828F83A3A3A3A3A3A3A3A3A3C8
:1056E30012571C900461E06822C082C08380128A32
:1056F300828B83A3A31257189004D1124A6D121AF6
:10570300179004D1123DF67001EB70E30248ECF5FB
:1057130082EF12351C12571C22E002545F74F612FA
:105723000A4F90046E1242CF9004DC125789124A3A
:105733006D7ADC7B0479501221079004DC122C6F04
:10574300FAEFFB12168D9004DC1242CF900EBEE0EE
:105753007002A3E0602D7A067B001219A5EA70019E
:10576300EB602074D58A828B83F0E4A3A3F07401E9
:105773008A828B831247CE125608900EBE124C7348
:10578300122328024C4B12578D22E0F8A3E0F99024
:10579300046E22C082C0839004DE741BF0A37416CF
:1057A300F09004E07415F0A37416F09004E27433DF
:1057B300F0A37416F00248ECC082C083900461E049
:1057C30064FE7004A3E064FF600E90045BE0A2E15A
:1057D300500612167512162112161B0248EC74F6A7
:1057E300120A4F9004AFE0602812199F8A08A80894
:1057F3009004AFE0FA75F0E8A4CAACF075F003A426
:105803002CFB747F582AFCE43BFD7A007B011228B1
:10581300CF024C4B74F0120A4F74FE1210C0750F76
:1058230000851082851183E4F0A3F01213397A0402
:105833007900121315EAFE7A0279011259F87A03F4
:1058430079031259F8121651EAF50E2EFF8E0AEA61
:10585300250AF8E43400F9E87001E97003025958A5
:105863008F08750900740278081211EDAA08AB09B4
:105873001247D57002A3E070030259568F087509C9
:1058830000740278081211EDAC08AD0979FF851098
:1058930082851183E0FA12198D7508008056A908D4
:1058A3001213338A0C8B0DEA7001EB60458A828BED
:1058B30083A3A3A3A3E0600464047036050F8A8264
:1058C3008B83A3A3A3A3A3A3A3A3A3A3E0F9121668
:1058D30081851082851183120E28EFFD850C828548
:1058E3000D83A3A3A3A3A3A3A3A3A3E0125A0B1201
:1058F300105E050885080A9026C2E493F8740193A4
:10590300F9C3E50A98E4995006E50FC39E408F75E5
:105913000800E508C3950E503CAA087B00121657F1
:105923008A0C8B0DEA7001EB60258510828511834B
:10593300120E28EA240EF582EB125A07FEEA240F10
:10594300123F58121681EFFDEE125A0B12105E052C
:105953000880BF7F0075096A900459E0600CF91252
:1059630022A5E9FA745CC39AF50975F003E5098485
:10597300F50A851082851183E0F50EA3E0F50F7516
:105983000B00E5096006750B20750900E50AC39F46
:105993005004AE0A8008EFFEE50BD2E6F50BAC0E21
:1059A300AD0FAA0BEEF912162DE9F50CE50BA2E6E5
:1059B300401F1E750800800EE50E2404F50EE50F4A
:1059C3003400F50F0508E508C39E40ECEECFC39FF6
:1059D300FFE97006E50BA2E650A5851082851183C9
:1059E300E07002A3E06009851082851183123B27D2
:1059F300A90C025386121315EACEC39EFE22EE248F
:105A030011F582EF123F5222FC850C82850D831221
:105A1300501612162774022274F2120A4FEAFEEB92
:105A2300FF8908740E1212F3125012750A00750BD7
:105A330000750900800E8A0A8B0BEA2404FAEB3402
:105A430000FB0509E509C39D50218A828B83E0642D
:105A5300FF7004A3E064FF70158A828B8312560CD7
:105A6300EC8A828B83125B01E508F00228C2E50A07
:105A73007002E50B600E850A82850B83C3E09EA34B
:105A8300E09F50B28A828B83125718C3EE98EF9926
:105A930050A4EAF8EBF988828983E064FF7004A3D9
:105AA300E064FF6010E82404F8E93400F90509E52F
:105AB30009C39D40E1880A890BE824FCF8E934FF17
:105AC300F988828983E0F50CA3E0F50D850A8285C8
:105AD3000B83E50CF0A3E50DF088828983125AF558
:105AE30012453D125AF5A3F0C3EA98EB9940C6025A
:105AF3005A5CA3A3E0850A82850B83A3A322A31286
:105B03005B0622A3F08A820236CC74F3120A4F7426
